:100000000C945D000C9485000C9485000C94850084
:100010000C9485000C9485000C9485000C9485004C
:100020000C9485000C9485000C9485000C941D01A3
:100030000C9485000C9485000C9485000C9485002C
:100040000C94D3000C9485000C9485000C948500CE
:100050000C9485000C9485000C9485000C9485000C
:100060000C9485000C94850000000008000201003B
:100070000003040700000000000000000000000072
:10008000250028002B0000000000240027002A0083
:10009000040404040404040402020202020203032E
:1000A0000303030301020408102040800102040836
:1000B0001020010204081020B80211241FBECFEF47
:1000C000D8E0DEBFCDBF11E0A0E0B1E0EEECF5E09E
:1000D00002C005900D92A030B107D9F721E0A0E051
:1000E000B1E001C01D92A233B207E1F710E0CDE507
:1000F000D0E004C02197FE010E94DF02CC35D10779
:10010000C9F70E94D9010C94E5020C94000090E01C
:10011000FC01E859FF4F2491FC01EC55FF4F34914D
:10012000FC01E057FF4FE491EE23C9F0222339F0A0
:10013000233001F1A8F4213019F1223029F1F0E047
:10014000EE0FFF1FE458FF4FA591B4918FB7F894BD
:10015000EC91611126C030953E233C938FBF0895EA
:100160002730A9F02830C9F0243049F78091800069
:100170008F7D03C0809180008F7780938000DFCFD8
:1001800084B58F7784BDDBCF84B58F7DFBCF809125
:10019000B0008F778093B000D2CF8091B0008F7D78
:1001A000F9CF3E2BDACF1F920F920FB60F92112488
:1001B0002F933F938F939F93AF93BF9380912E0183
:1001C00090912F01A0913001B091310130912D011A
:1001D00023E0230F2D3758F50196A11DB11D209363
:1001E0002D0180932E0190932F01A0933001B093A5
:1001F00031018091290190912A01A0912B01B091A8
:100200002C010196A11DB11D8093290190932A0113
:10021000A0932B01B0932C01BF91AF919F918F912F
:100220003F912F910F900FBE0F901F90189526E8C9
:10023000230F0296A11DB11DD2CF1F920F920FB6B0
:100240000F9211242F933F934F935F936F937F935C
:100250008F939F93AF93BF93CF93DF93EF93FF93CE
:1002600080910101C0910001D0E087FF24C010926D
:10027000850010928400809101018F5F80930101BD
:1002800080910101082E000C990B8C179D0724F416
:10029000809101018C30C4F180918400909185009F
:1002A000049680349C4908F47AC08091840090912F
:1002B0008500049676C080910101082E000C990BF0
:1002C0008C179D07C4F6E09101018E2FEE0F990B5C
:1002D000FC01EE0FFF1FE80FF91FEE5FFE4F80815C
:1002E00086FFC9CFE09101018E2FEE0F990BFC0123
:1002F000EE0FFF1FE80FF91FEE5FFE4F808160E0F9
:100300008F730E948700B7CF2091840030918500C1
:10031000E09101018E2FEE0F990BFC01EE0FFF1FF4
:10032000E80FF91FEE5FFE4F81819281820F931FCC
:100330009093890080938800E09101018E2FEE0F49
:10034000990BFC01EE0FFF1FE80FF91FEE5FFE4F48
:10035000808186FF11C0E09101018E2FEE0F990B75
:10036000FC01EE0FFF1FE80FF91FEE5FFE4F8081CB
:1003700061E08F730E948700FF91EF91DF91CF9131
:10038000BF91AF919F918F917F916F915F914F91AD
:100390003F912F910F900FBE0F901F90189580E402
:1003A0009CE990938900809388008FEF80930101EE
:1003B000E3CF789484B5826084BD84B5816084BDC8
:1003C00085B5826085BD85B5816085BD80916E00F3
:1003D000816080936E001092810080918100826024
:1003E0008093810080918100816080938100809161
:1003F00080008160809380008091B1008460809350
:10040000B1008091B00081608093B00080917A004B
:10041000846080937A0080917A00826080937A0071
:1004200080917A00816080937A0080917A00806860
:1004300080937A001092C100809126018C3008F0E0
:1004400068C0E7EBF0E02491E3EAF0E084918823D0
:1004500099F090E0880F991FFC01EA57FF4FA59192
:10046000B491FC01E458FF4F859194918FB7F894B3
:10047000EC91E22BEC938FBF80912601282F30E086
:10048000F901EE0FFF1FE20FF31FEE5FFE4F9081A9
:10049000907C9361908310922701109228012CE0A8
:1004A000622F0E94D302829FB001112430E020E02D
:1004B000AB01420F531FFA01EE0FFF1FE40FF51FB0
:1004C000EE5FFE4F908196FD16C02F5F3F4F2C30A0
:1004D000310571F781110FC01092800082E0809386
:1004E00081001092850010928400B19A80916F0073
:1004F000826080936F00E09126018E2F90E0FC01D6
:10050000EE0FFF1FE80FF91FEE5FFE4F8081806442
:10051000808308E512E0C0E0D0E0209126012C3075
:1005200010F580912801A801481B510987FD5395BA
:10053000CA01880F991F880F991F843C59E09507BD
:1005400014F084EC99E00297880F991F4FB7F89444
:1005500030E0F901EE0FFF1FE20FF31FEE5FFE4FD9
:10056000928381834FBF2097C1F20E940000D5CFB4
:10057000809100018C3098F491E0980F90930001E5
:100580008093260190E0FC01EE0FFF1FE80FF91F9A
:10059000EE5FFE4F88EB9BE09283818308958FEF9F
:1005A000809326010895991B79E004C0991F96173E
:1005B00008F0961B881F7A95C9F780950895EE0F6D
:0E05C000FF1F0590F491E02D0994F894FFCFF1
:00000001FF
