:100000000C945C000C946E000C946E000C946E00CA
:100010000C946E000C946E000C946E000C946E00A8
:100020000C946E000C946E000C946E000C946E0098
:100030000C946E000C946E000C946E000C946E0088
:100040000C9403010C944D010C946E000C946E0002
:100050000C946E000C946E000C946E000C946E0068
:100060000C946E000C946E00000000080002010069
:100070000003040700000000000000000000000072
:10008000250028002B0000000000240027002A0083
:10009000040404040404040402020202020203032E
:1000A0000303030301020408102040800102040836
:1000B000102001020408102011241FBECFEFD8E049
:1000C000DEBFCDBF21E0A0E0B1E001C01D92A63EA1
:1000D000B207E1F70E947D010C9400030C9400002C
:1000E00090E0FC01EC55FF4F249180579F4FFC019D
:1000F0008491882399F090E0880F991FFC01EA57BA
:10010000FF4FA591B491FC01E458FF4F8591949164
:100110008FB7F894EC91E22BEC938FBF089590E0A9
:10012000FC01E859FF4F2491FC01EC55FF4F34913D
:10013000FC01E057FF4FE491EE23C9F0222339F090
:10014000233001F1A8F4213019F1223029F1F0E037
:10015000EE0FFF1FE458FF4FA591B4918FB7F894AD
:10016000EC91611126C030953E233C938FBF0895DA
:100170002730A9F02830C9F0243049F78091800059
:100180008F7D03C0809180008F7780938000DFCFC8
:1001900084B58F7784BDDBCF84B58F7DFBCF809115
:1001A000B0008F778093B000D2CF8091B0008F7D68
:1001B000F9CF3E2BDACF2091660130916701809113
:1001C00064019091650128173907A9F3E091640152
:1001D000F0916501E050FF4F8081209164013091E2
:1001E00065012336310521F41092650110926401F6
:1001F00020916401309165012F5F3F4F309365017D
:100200002093640108951F920F920FB60F9211244C
:100210002F933F938F939F93AF93BF938091E2016E
:100220009091E301A091E401B091E5013091E101E9
:1002300023E0230F2D3758F50196A11DB11D209302
:10024000E1018093E2019093E301A093E401B09374
:10025000E5018091DD019091DE01A091DF01B09177
:10026000E0010196A11DB11D8093DD019093DE0197
:10027000A093DF01B093E001BF91AF919F918F9167
:100280003F912F910F900FBE0F901F90189526E869
:10029000230F0296A11DB11DD2CF1F920F920FB650
:1002A0000F9211248F939F93EF93FF93E091660138
:1002B000F09167018EB5E050FF4F808384E18EBDE1
:1002C00080916601909167018336910521F4109227
:1002D0006701109266018091660190916701019615
:1002E0009093670180936601FF91EF919F918F91A9
:1002F0000F900FBE0F901F901895789484B5826070
:1003000084BD84B5816084BD85B5826085BD85B5B9
:10031000816085BD80916E00816080936E00109237
:1003200081008091810082608093810080918100B2
:100330008160809381008091800081608093800043
:100340008091B10084608093B1008091B0008160A1
:100350008093B00080917A00846080937A008091CD
:100360007A00826080937A0080917A008160809325
:100370007A0080917A00806880937A001092C100A0
:1003800080E00E94700080E10E94700081E10E9484
:1003900070008CE00E9470008CB580648CBD8CB5C0
:1003A0008F7E8CBD87E68EBD8CB580688CBD7894C1
:1003B00060E080E00E948F0061E080E10E948F0099
:1003C00061E081E10E948F00DD24DA9490E0E92E63
:1003D00090E0F92E22E0C22E3BE8B32E0E94DB0013
:1003E000809373018F3F09F09EC00E94DB00982E1E
:1003F0008093DC010E94DB0080937201C8E6D1E0AB
:10040000082F10E0CE01885691408017910724F400
:100410000E94DB008993F6CF0E94DB00882E809338
:1004200075010E94DB00A82E80937401C92DD0E0D5
:10043000C150DF4FC00FD11FE8E6F1E0CF01885671
:1004400091408017910724F48191C80FD11DF6CFF8
:100450006D2F772767FD7A95072E000C880B990B77
:100460000E94A1022B013C01682D70E090E080E029
:100470000E94A1029B01AC01C301B2010E949A0239
:10048000811151C08A2D90E0C817190609F04BC0A0
:10049000911049C061E080E00E948F0061E080E13E
:1004A0000E948F0060E081E10E948F00C092DA011B
:1004B00081E08093DB01B0927601DEBC0E94DB001C
:1004C0008091DA018EBD0E94DB00C091DA01D0E09C
:1004D000C150DF4F8091DB018EBD0E94DB00809117
:1004E000DB01C80FD11D06E711E02091DB01C80137
:1004F000865791402817190651F04CF0F801819168
:100500008F01C80FD11D8EBD0E94DB00EECFD093AE
:100510007501C0937401DEBD0E94DB0080917401FF
:100520008EBD0E94DB00E114F10409F457CF0E9454
:10053000000054CF0E94DC0208F481E00895E894A2
:1005400009C097FB3EF490958095709561957F4F1B
:100550008F4F9F4F9923A9F0F92F96E9BB279395C9
:10056000F695879577956795B795F111F8CFFAF4D9
:10057000BB0F11F460FF1BC06F5F7F4F8F4F9F4F0A
:1005800016C0882311F096E911C0772321F09EE868
:10059000872F762F05C0662371F096E8862F70E0CE
:1005A00060E02AF09A95660F771F881FDAF7880FA8
:1005B0009695879597F90895990F0008550FAA0BFE
:1005C000E0E8FEEF16161706E807F907C0F0121666
:1005D0001306E407F50798F0621B730B840B950B69
:1005E00039F40A2661F0232B242B252B21F40895BE
:1005F0000A2609F4A140A6958FEF811D811D08955B
:04060000F894FFCF9C
:00000001FF
