:100000000C94CF000C94F7000C94F7000C94F700BC
:100010000C94F7000C94F7000C94F7000C94F70084
:100020000C94F7000C94F7000C94D9060C94480734
:100030000C94F7000C94F7000C94F7000C94F70064
:100040000C94F7000C94F7000C94F7000C94F70054
:100050000C94F7000C94F7000C94F7000C947A09B8
:100060000C94F7000C94F7000C94F7000C94F70034
:100070000C94F7000C94F7000C94F7000C94F70024
:100080000C94F7000C94F7000C94F7000C94F70014
:100090000C94F7000C94F7000C94F7000C94F70004
:1000A0000C94F7000C94F7000C94F700000000008B
:1000B000240027002A002D00300000000000250049
:1000C00028002B002E00310004040404040304055E
:1000D00002020202040302020202060606060606E5
:1000E00004040202020404040802011040804010CB
:1000F000204080408008020401804020100201104E
:100100008010204040200000000200090F00000382
:100110000401000C000000000000000000000000CE
:100120000000000000080B000202020000090400A9
:100130000001020200000524001001052401010154
:10014000042402060524060001070581031000406F
:1001500009040100020A0000000705020240000035
:10016000070583024000000403090412010002EFA6
:100170000201404123368000010102030141726403
:1001800075696E6F204C4C430041726475696E6FE7
:10019000204C656F6E6172646F00C409520F1124A8
:1001A0001FBECFEFDAE0DEBFCDBF23E0A4E4B1E0B5
:1001B00001C01D92AE32B207E1F711E0A0E0B1E05C
:1001C000E0E5F3E202C005900D92A434B107D9F73F
:1001D00010E0CEECD0E004C02197FE010E94A30FF6
:1001E000CD3CD107C9F70E94E7090C949B110C94F0
:1001F0000000FC018091D302882311F13FB7F894ED
:1002000082E08093E9002091F200822F90E018169E
:10021000190614F481E090E0882339F0289844E628
:100220004093D2024091F1004083222339F0209183
:10023000F200211103C02BE62093E8003FBF089590
:100240008FEF9FEF08952FB7F89483E08093E90034
:100250009091E800892F807295FF04C09091F20080
:1002600080E4891B2FBF08958091CA0281110DC0BF
:1002700082E08093C60284E08093C7021092C90294
:100280001092C80281E08093CA0286EC92E0089541
:10029000089540917A0150917B012091780130912D
:1002A000790142175307B4F49091E8009570E1F397
:1002B0009091E80092FD19C08093F10080917A013D
:1002C00090917B0101968F739927892B19F48EEFFA
:1002D0008093E80080917A0190917B010196909340
:1002E0007B0180937A0181E0089580E00895EF9288
:1002F000FF920F931F93CF93DF93F82E192FE62EC3
:10030000042F81E0860F880F0E94490183E00E943C
:100310004901CF2DD12FEC0EFD2EF11CCE15DF059E
:10032000B9F007FF13C0FE0184910E944901182F04
:1003300080E00E944901812321968111EFCFDF9156
:10034000CF911F910F91FF90EF9008958881EDCF8D
:1003500081E0F5CFDF92EF92FF920F931F93CF933F
:10036000DF93D82E8A01EB017B01E40EF51ECE153A
:10037000DF0559F0D7FE12C0FE0184910E944901A9
:1003800021968111F4CF0FEF1FEFC801DF91CF91BC
:100390001F910F91FF90EF90DF9008958881EECF2D
:1003A0000F931F93CF93DF931F92CDB7DEB782E0F9
:1003B000898342E450E065E271E080E80E94AA018E
:1003C0000E943401DC0112960D911C91011511055A
:1003D00089F0D801ED91FC910280F381E02DBE01FE
:1003E0006F5F7F4FC801099597FD04C0F801008534
:1003F0001185ECCF89810F90DF91CF911F910F91E3
:100400000895615030F02091F100FC0120830196A5
:10041000F8CF289884E68093D2020895CF93DF9393
:100420001F92CDB7DEB76983DC01ED91FC910280AC
:10043000F381E02D41E050E0BE016F5F7F4F0995F1
:100440000F90DF91CF910895682F84ED92E00C9486
:100450000E0283E08093E9008091F200882319F076
:100460008AE38093E80008950E94230190E00895B4
:10047000CF93DF931F92CDB7DEB7FC0184859585BE
:1004800097FD08C02FEF3FEF358724870F90DF914E
:10049000CF910895CE0101960E94F900019719F4B9
:1004A000898190E0F3CF8FEF9FEFF0CF0F931F93F1
:1004B000CF93DF931F92CDB7DEB78C01FC0184850B
:1004C000958597FF0BC0CE0101960E94F900019718
:1004D00071F4898190E0F80195878487F80184851B
:1004E00095850F90DF91CF911F910F9108958FEF18
:1004F0009FEFF1CFFC018485958597FD0BC09FB7D9
:10050000F89482E08093E9008091F2009FBF90E030
:10051000019608959FB7F89482E08093E900809156
:10052000F2009FBF90E00895282F30E0F901EA5FC4
:10053000FE4F9491F901E951FF4F849128533F4FA9
:10054000F9012491222309F430C09923E9F0915054
:100550009F30D0F4E92FF0E0E055FD4F0C94A30F4D
:10056000DE02E202BF02D602DA02C402C402C40200
:10057000E502EB02EF02F302F902C402FD029091E0
:1005800080009F7790938000E22FF0E0EE0FFF1F36
:10059000E654FF4FA591B4919FB7F894EC91611187
:1005A00032C080958E238C939FBF089590918000D8
:1005B0009F7DE8CF90918000977FE4CF94B59F779F
:1005C00094BDE2CF94B59F7DFBCF909190009F7733
:1005D00090939000D9CF909190009F7DF9CF90910A
:1005E0009000977FF5CF9091C0009F779093C000C7
:1005F000CBCF9091C0009F7DF9CF9091C200977FA3
:100600009093C200C1CF8E2BCECFCF93DF9390E0DB
:10061000FC01E951FF4F249188539F4FFC018491C5
:100620008823D1F090E0880F991FFC01E455FF4F1B
:10063000A591B491FC01E654FF4FC591D49161118D
:100640000EC09FB7F8948C91E22FE0958E238C9387
:100650002881E223E8839FBFDF91CF9108958FB770
:10066000F894EC91E22BEC938FBFF6CF3FB7F89460
:100670008091740190917501A0917601B0917701FC
:1006800026B5A89B05C02F3F19F00196A11DB11DED
:100690003FBFBA2FA92F982F8827BC01CD01620F29
:1006A000711D811D911D42E0660F771F881F991FE4
:1006B0004A95D1F708958F929F92AF92BF92CF92B1
:1006C000DF92EF92FF924B015C010E9436036B01B7
:1006D0007C010E9436036C197D098E099F09683ED2
:1006E000734081059105A8F321E0821A9108A108C1
:1006F000B10888EEC80E83E0D81EE11CF11C8114FD
:100700009104A104B10429F7FF90EF90DF90CF90FE
:10071000BF90AF909F908F9008958F929F92AF92CD
:10072000BF92CF92DF92EF92FF920F931F93CF93DE
:10073000DF936C017B018A0180910B01882309F40E
:100740005CC08091D302882309F457C080917E0158
:1007500080FF05C08091E00082608093E000E801A6
:10076000B12C8AEFA82E93E0892E2AE3922E2097AF
:1007700011F4BB20D9F10E94230181110AC0AA946F
:10078000AA20D9F161E070E080E090E00E945B0374
:10079000EECF8C171D0611F00CF08C2F9FB7F8943C
:1007A0008092E9002091E80025FD02C09FBFDFCFC5
:1007B000282F30E0C21BD30BF701815020F041916C
:1007C0004093F100FACFE20EF31EBB2021F090928D
:1007D000E800B12CEBCF8091E80085FDE7CF909247
:1007E000E800BB24B394209709F3F3CF5D9884E627
:1007F00080937D01101611063CF081E090E0F60137
:100800009383828310E000E0C801DF91CF911F91B4
:100810000F91FF90EF90DF90CF90BF90AF909F909F
:100820008F9008959FB7F89480916E01882319F0F6
:10083000815080936E0180916E01811105C08CB54D
:100840008F7B8CBD109281019FBF0895CF93CFB74E
:10085000F89480916E01811127C0E9EDF0E0849158
:10086000E8EFF0E09491E82FF0E0EE0FFF1FE45581
:10087000FF4FA591B491EC91E92321F461E081E16E
:100880000E94940261E081E10E9405038CB58061C1
:100890008CBD8CB580648CBD61E08FE00E94050347
:1008A00061E080E10E94050380916E018F5F80937B
:1008B0006E01CFBFCF9108958091990290919A02D5
:1008C000019690939A028093990285E10C942402F8
:1008D00020918D0130918E01809195029091960228
:1008E0002032310511F4807F08952034310511F450
:1008F000807E08952038310511F4807C08952115FB
:10090000314009F48078089584ED92E00E947A02E3
:10091000892BD1F384ED92E00E9438020895CF93A1
:10092000C82F0E948404803251F484E10E94240282
:100930008C2F0E94240280E1CF910C94240280919C
:10094000990290919A02019690939A02809399024B
:1009500085E1F2CF0E948404803231F484E10E9468
:10096000240280E10C9424028091990290919A02D1
:10097000019690939A028093990285E1F3CF0F93A9
:100980001F93CF93DF938C01C5E9D1E0CE01855948
:1009900091408017910724F40E9484048993F6CF34
:1009A000DF91CF911F910F910895FC0120818181EA
:1009B000422F480F5527551F2281240F352F311DF7
:1009C000838190E0280F391F349650E040E04817AB
:1009D000590734F46191260F311D4F5F5F4FF7CFF8
:1009E00030936D0120936C010895CF93DF93EC0158
:1009F0000E94D504EB81EC0FFD2FF11D94818091B5
:100A00006D01981305C081E0258190916C01291337
:100A100080E0DF91CF910895E4E4F1E0ACE9B2E049
:100A200081918D9381E0E835F807D1F70895E0EBE7
:100A3000F2E0A8E5B1E081918D9382E0E43CF80713
:100A4000D1F708950F931F93CF93DF93EC01688143
:100A500084ED92E00E940E02698184ED92E00E9492
:100A60000E026A8184ED92E00E940E026B8184ED99
:100A700092E00E940E028E01C8018C1B9D0B0F5F3D
:100A80001F4F2B812817190641F03CF0F8016381B4
:100A900084ED92E00E940E02EFCFCE010E94D504B9
:100AA00060916D0184ED92E00E940E0260916C01F4
:100AB00084ED92E0DF91CF911F910F910C940E0283
:100AC00060918001811102C081E068278091C40299
:100AD0000C949402823071F0833091F060E087E0F2
:100AE0000E94940261E08BE00E94940261E087E141
:100AF0000C94940261E087E00E94940260E0F3CFDE
:100B000061E087E00E94940261E08BE00E94940221
:100B100060E0EDCF8EBD00000DB407FEFDCF8EB5B9
:100B200008951F93CF93DF93162FD42FC22F0E94C7
:100B30008A05812F0E948A058D2F0E948A058C2F9D
:100B4000DF91CF911F910C948A05EF92FF920F9342
:100B50001F93CF93DF93EC018B01CB010E94BF0465
:100B600085E9E82E81E0F82E0C0F1D1FC017D10774
:100B700081F0F70121917F014C2F6D2F80EC0E94B5
:100B800091056DE270E080E090E00E945B032196A9
:100B9000EDCF80E1DF91CF911F910F91FF90EF900A
:100BA000089520E0482F692F8CE40E9491056EE1A2
:100BB00070E080E090E00C945B03CF93DF93C82F4C
:100BC000D62F60E00E9494028D2F0E948A05D82FB4
:100BD00061E08C2F0E9494028BE891E00197F1F77D
:100BE0008D2FDF91CF910895EF92FF920F931F9376
:100BF000CF93C82F609158010E94DD056091590183
:100C00008C2F0E94DD0560915A018C2F0E94DD051A
:100C100060915B018C2F0E94DD0508E511E0C801A1
:100C2000885591400F5F1F4F20915B0128171906CF
:100C300039F034F0F80163818C2F0E94DD05EFCF8D
:100C400088E591E00E94D50460916D018C2F0E948F
:100C5000DD0560916C018C2F0E94DD058BEA94E02C
:100C60000197F1F760E08C2F0E94DD05809344012D
:100C700060E08C2F0E94DD058093450160E08C2FA1
:100C80000E94DD058093460160E08C2F0E94DD0507
:100C90008093470184E4E82E81E0F82EC701845454
:100CA00091400091470110E0FFEFEF1AFF0A60E06A
:100CB0008017910734F48C2F0E94DD05F7018383A0
:100CC000EDCF8C2F0E94DD05F801EC5BFE4F848395
:100CD0000091470110E00B5F1F4F60E08C2F0E94D6
:100CE000DD05F801EC5BFE4F808384E491E0CF9159
:100CF0001F910F91FF90EF900C94F504FC018081FF
:100D00009181009711F00C94451008950F931F9353
:100D1000CF93DF93EC0188819981009759F02A8164
:100D20003B812617370730F081E0DF91CF911F918B
:100D30000F9108958B016F5F7F4F0E94CE10009737
:100D400059F0998388831B830A832C813D81232B4F
:100D500059F7FC011082E8CF80E0E7CFEF92FF92D5
:100D60000F931F93CF93DF93EC017B018A01BA01AC
:100D70000E94860628813981811114C02115310510
:100D800019F0C9010E944510198218821D821C8227
:100D90001B821A82CE01DF91CF911F910F91FF909C
:100DA000EF9008951D830C83B701C9010E9494112F
:100DB000F1CF1F920F920FB60F9211248F939F9332
:100DC0008091E1009091E100937F9093E10083FF97
:100DD0000FC01092E90091E09093EB001092EC00AC
:100DE00092E39093ED001092D30298E09093F0007C
:100DF00082FF22C093E09093E9009091F200992342
:100E000019F09AE39093E80090917D01992341F0C5
:100E100090917D01915090937D01911101C05D9A57
:100E20009091D202992341F09091D20291509093E7
:100E3000D202911101C0289A84FF18C08091E2006B
:100E40008E7E81608093E2008091E1008F7E8093AE
:100E5000E10080917E018E7E806180937E019F9172
:100E60008F910F900FBE0F901F90189580FFF7CFB6
:100E70008091E2008E7E80618093E2008091E100AB
:100E80008E7E8093E10080917E018E7E8160E5CF31
:100E90001F920F920FB60F921124CF92DF92EF9212
:100EA000FF920F931F932F933F934F935F936F93F3
:100EB0007F938F939F93AF93BF93EF93FF93CF93C2
:100EC000DF93CDB7DEB76C97DEBFCDBF1092E900E0
:100ED0008091E80083FF25C068E0CE0145960E941E
:100EE000010282EF8093E8008D8987FF39C09091DD
:100EF000E80090FFFCCF982F907609F034C19E89CE
:100F00004F89588D2F89F88C911131C0803861F547
:100F100080917F018093F1001092F1008EEF809319
:100F2000E8006C960FB6F894DEBF0FBECDBFDF9120
:100F3000CF91FF91EF91BF91AF919F918F917F9151
:100F40006F915F914F913F912F911F910F91FF9062
:100F5000EF90DF90CF900F900FBE0F901F901895DD
:100F60009EEF9093E800C7CF1092F100D5CF91305B
:100F700059F48111D3CF4130510581F680917F0121
:100F80008D7F80937F01CACF933049F48111C6CF02
:100F90004130510519F680917F018260F2CF953082
:100FA00041F48091E80080FFFCCF20682093E300AB
:100FB000B5CF963009F0A9C00B8D1C8D22E01092A0
:100FC000E90010927B0110927A01F2122EC0109269
:100FD0007901109278010E94D0011F8299E09983D3
:100FE000FA8291E09E8390EA98879AEF9987209100
:100FF0007A0130917B01275F3F4F3C832B838D83A8
:101000001092E90010927B0110927A0110937901FD
:101010000093780149E050E0BE016F5F7F4F80E0B0
:101020000E94AA010E94D00179CF10937901009308
:1010300078010E943401DC0112960D911C9101157A
:10104000110509F451C1D801ED91FC910480F5819D
:10105000E02DBE016B5E7F4FC8010995009709F036
:101060003EC1F80100851185EACFF3E0FF120EC002
:101070008F89882309F440C0823061F440E860E140
:1010800089E891E00E947701811148CF81E2809345
:10109000EB0047CF813029F440E86BE08DE791E029
:1010A000F1CF833099F70E943401DC011296ED9064
:1010B000FC908E010F5F1F4F6801E114F10479F07D
:1010C000D701ED91FC910680F781E02DB801C701B1
:1010D0000995080F111DF701E084F184EECFD801C6
:1010E0001C92F60101900020E9F73197BF016C19BD
:1010F0007D0940E0C601C6CF67E671E0FB0144917F
:1011000050E080E80E94AA0109CF973009F4BECFD1
:10111000983021F481E08093F10000CF993009F0FC
:10112000FDCE837009F0B2CFE3E1F1E081E031E080
:1011300096E32191222371F08093E9003093EB0034
:10114000DF0111972C912093EC009093ED008F5FBD
:10115000873079F78EE78093EA001092EA008F8952
:101160008093D302DBCE8B8D9C8D1092E900109280
:101170007B0110927A019093790180937801898D97
:10118000811192C08E899D89913A49F4813209F08A
:101190007DCF47E050E064E071E080E0B3CF913272
:1011A00009F074CF833269F48F89988DB0E0A0E0A4
:1011B0008093000190930101A0930201B093030179
:1011C000ADCE803269F48091E80082FFFCCF67E009
:1011D00084E091E00E9401028BEF8093E8009ECEB4
:1011E000823209F09BCE8F8980930B01EEEFFFE7EF
:1011F000859194918B3F9C4D51F1E0E0F8E0809116
:10120000040190910501A0910601B0910701803B76
:101210009440A105B105F1F480910B0180FD1AC045
:10122000EE3F8AE0F80789F587E797E791838083A7
:101230008091600080937C0188E19BE00FB6F89478
:10124000A895809360000FBE9093600067CEEEEF8C
:10125000FAE0D5CF808191818737974709F05ECE3C
:10126000A8958091600088618093600080917C01E6
:1012700080936000EE3F2AE0F20789F08091FE0A39
:101280009091FF0A9183808349CE80819181873735
:10129000980751F29093FF0A8093FE0AC5CF1092EF
:1012A000FF0A1092FE0A3ACE0E943401DC01129627
:1012B0000D911C910115110509F4E8CED801ED91AD
:1012C000FC910190F081E02DBE016B5E7F4FC80163
:1012D0000995811123CEF80100851185EBCF1816F1
:1012E00019060CF41BCED2CEF1E0FF12BECE6BE697
:1012F00071E004CF1F920F920FB60F9211242F931B
:101300003F938F939F93AF93BF9380917001909180
:101310007101A0917201B091730130916F0123E0CE
:10132000230F2D3758F50196A11DB11D20936F0194
:101330008093700190937101A0937201B093730137
:101340008091740190917501A0917601B09177011F
:101350000196A11DB11D8093740190937501A09316
:101360007601B0937701BF91AF919F918F913F919B
:101370002F910F900FBE0F901F90189526E8230F06
:101380000296A11DB11DD2CFE4EDF2E013821282CC
:1013900088EE93E0A0E0B0E084839583A683B783D2
:1013A0008DE291E0918380838FEF9FEF9587848713
:1013B000E4E2F3E011821082138212821582148219
:1013C00050E040E062E471E0CF010C94AE06CF93B0
:1013D000DF93CDB7DEB72C970FB6F894DEBF0FBE04
:1013E000CDBF789484B5826084BD84B5816084BDAE
:1013F00085B5826085BD85B5816085BD80916E00B3
:10140000816080936E0010928100809181008260E3
:101410008093810080918100816080938100809120
:101420008000816080938000809191008260809331
:101430009100809191008160809391008091900053
:101440008160809390008091C10084608093C1008E
:101450008091C10082608093C1008091C100816051
:101460008093C1008091C30081608093C30080910C
:10147000C00082608093C0008091C2008160809330
:10148000C20080917A00846080937A0080917A0013
:10149000826080937A0080917A00816080937A00E4
:1014A00080917A00806880937A001092D302109223
:1014B0007F0110927E018091D70081608093D700D8
:1014C00080EA8093D80089B5806189BD89B5826042
:1014D00089BD09B400FEFDCF61E070E080E090E0DE
:1014E0000E945B038091D8008F7C80618093D8003C
:1014F0008091E000807F8093E0008091E1008E7E0B
:101500008093E1008DE08093E200559A209A8FEF5E
:101510009FEF9093E1028093E00261E087E00E94F8
:10152000050361E08BE00E94050361E087E10E9412
:10153000050382E00E946A0509E111E0E1E2CE2E96
:10154000E1E0DE2EF801F1908F0161E08F2D0E9425
:10155000050361E08F2D0E949402C016D10691F719
:101560006BE8262E3324339466246394712C55241F
:10157000539444E1442E50E0852E50E0952E809106
:10158000C502811133C082E00E946A050E94840472
:10159000883739F08C3891F0803341F54092C4029D
:1015A00009C00E948404E82FF0E0EF5DFE4F8081C7
:1015B0008093C4025092C50281E016C061E080E1D0
:1015C0000E9405030E9426048CB58C7F82608CBD2E
:1015D0008DB58E7F8DBD6CE884ED92E00E940E0289
:1015E00082E08093C50283E00E946A058091C50273
:1015F000813051F0823009F498C28114910409F4C9
:10160000BECF0E940000B3CF0E948404813509F44C
:1016100044C208F0A4C0813409F42FC1A0F480337F
:1016200009F412C1813309F416C1803209F06DC288
:101630008091990290919A02019690939A028093D8
:10164000990285E1B4C1853409F42EC1803509F4CD
:1016500030C1823409F059C284E190E00E94BF0495
:1016600020919501209382018091960180938301BE
:1016700080919701809384018091980180938501E6
:10168000809199018093860180919A0180938701CE
:1016900080919B018093880180919C0180938901B6
:1016A00080919D0180938A0180919F0190E0982F05
:1016B00088273091A001830F911D90938C01809316
:1016C0008B018091A10190E0982F88273091A20191
:1016D000830F911D90938E0180938D018091A301C2
:1016E00090E0982F88273091A401830F911D90934B
:1016F000900180938F018091A50190E0B0E0A0E07F
:10170000BA2FA92F982F88273091A601830F911DFA
:10171000A11DB11DDC01992788274091A70150E048
:10172000542F4427052E000C660B770B840F951F52
:10173000A61FB71F3091A801830F911DA11DB11DD8
:101740008093910190939201A0939301B09394019F
:1017500081E0203E08F480E08093800179C08136EA
:1017600009F4EEC0C0F4863509F488C1803609F466
:10177000E5C0853509F0C9C10E948404182F0E9474
:10178000840490E0982F8827810F911D90939602F2
:10179000809395025DC0843709F415C1853709F43B
:1017A00093C1843609F0B1C10E948404082F10E06F
:1017B000102F00270E948404080F111D0E9484042A
:1017C000863409F0C4C0C8010E94BF040E9484048A
:1017D000803209F02DCF84E10E9424020E94680427
:1017E0005C0145E9C42E41E0D42EC60185599140E3
:1017F000801791070CF0A7C00E9468048A159B050A
:1018000031F0C5010E94D1050E9468045C01E0909E
:101810009502F0909602F60120814E2D6F2D80E406
:101820000E949105F60121814E2D6F2D88E40E94C2
:101830009105FFEFEF1AFF0AF0929602E0929502EF
:1018400022E0C20ED11CD1CF10929A0210929902BE
:101850000E94AA04D2CE0E948404803209F0E8CE0D
:1018600084E10E94240247E050E06BE371E084EDE4
:1018700092E00E948D0380E19AC00E948404813826
:1018800079F020F4803841F080E007C0823851F0D0
:101890008339D1F783E501C082E00E948F04ADCE89
:1018A00081E0FBCF82E1F9CF85E090E00E94BF04A8
:1018B000CFCF8091970290919802892B49F681E0D1
:1018C0000E94600561E08091C4020E9405030E94AD
:1018D000260480918101882351F08FB7F89490916C
:1018E0008101913021F49DB39DB39DBB8FBF83E5F2
:1018F0008CBD1DBC60E08FE00E94940264E170E04A
:1019000080E090E00E945B0380E00E946005C101DE
:101910000197F1F781E00E94600562E370E080E0EA
:1019200090E00E945B0320E040E063E58CEA0E94C7
:10193000910570929802609297028ACF0E94840467
:101940000E94840485CFC5010E94D10594CF8534BF
:1019500009F092C080918F019091900180179107BA
:10196000A0F0E0909502F0909602EE0CFF1C013280
:10197000110500F160E270E0C7010E94A50580E258
:10198000E80EF11C00521109F2CF8091990290915A
:101990009A02019690939A028093990211E10E9413
:1019A0008404803269F484E10E942402812F0E9421
:1019B000240223CEB801C7010E94A50510E1EFCF94
:1019C0000E945C041ACE0E948404E82E0E948404C3
:1019D000D82E0E948404082F0E948404803219F0BB
:1019E0000E945C040ACEF12CFE2CEE24ED0CF11CBE
:1019F00084E10E942402063431F510E000E00E1567
:101A00001F050CF038CF409195026091960220E0BE
:101A100080E20E9491050E9424024091950260910B
:101A2000960220E088E20E9491050E9424028091A3
:101A3000950290919602019690939602809395025A
:101A40000E5F1F4FDCCF0534B9F400919502109161
:101A50009602000F111FE00EF11EE016F10609F4C8
:101A60000ACF2FEF402F612F80EA0E9491050E943C
:101A700024020F5F1F4FF1CF81E199CF84E090E006
:101A80000E94BF04209198014091970160919601B6
:101A9000809195010E94910500CF10929A021092B8
:101AA00099020E94120480E00E94600560E080912B
:101AB000C4020E940503109298021092970210929D
:101AC000C4021092C502C4CE0E948404803209F080
:101AD000AFCD84E10E94240220E040E060E080E39A
:101AE0000E9491050E94240220E041E060E080E332
:101AF0000E9491050E94240220E042E060E080E321
:101B00000E9491050E942402B6CE80919902909184
:101B10009A02019690939A02809399020E948404FB
:101B2000803209F08ECD82E142CF1092B0028091D6
:101B3000B0028F3F81F00E9484048093B0028A3A01
:101B4000B1F78091B0028A3A09F057CD0E94120491
:101B50001092C50252CD0E9484048093B1020E946B
:101B600084048093B2020E9484048093B30280EBC9
:101B7000E82E82E0F82EC701805B92400091B3020C
:101B800010E0EFEFEE1AFE0A801791072CF40E9486
:101B90008404F7018383EFCF0E948404F801E055A9
:101BA000FD4F84830091B30210E00B5F1F4F0E9432
:101BB0008404F801E055FD4F808380EB92E00E94A1
:101BC000F504882309F4BDCF8FEF80939C028091A8
:101BD000B202833031F0C0F48130A9F1823009F4CF
:101BE00018C10E941705E091B102F0E0E95EFE4FD6
:101BF00080810E94F40581111AC081E00E946A056B
:101C000010929D0282E01AC0883121F08834A1F040
:101C10008B3039F70E941705E091B102F0E0E95EE0
:101C2000FE4F80810E94F405882309F42CC10E9494
:101C30000C058CE992E033C110929D0280939E02C4
:101C400010929F02F6CF83E00E946A0550E040E0C8
:101C500062E471E084E293E00E94AE0600EB12E0E1
:101C60002091B302C801805B92402817190609F041
:101C70000CF493C0F801F4801A8219821C821B8232
:101C80001E821D82609124037091250361157105E8
:101C900041F04091280350912903CE0101960E9402
:101CA000AE06FF821886ED80FE80FFEFEF1AFF0A76
:101CB000B701CE0101960E94860629813A818823C8
:101CC00009F445C08D819E81BE01695F7F4F820FFF
:101CD000931F0E949411FE82ED8218861F821A863D
:101CE00019861C861B8669817A816115710531F020
:101CF0004D815E81CE0107960E94AE06809124033D
:101D000090912503009791F16F8178856115710598
:101D100059F140912603509127032B853C854217AA
:101D2000530710F10E9494118B859C859093290391
:101D3000809328031C861B86CE0107960E947E0690
:101D4000CE0101960E947E060F5F1F4F89CF21159D
:101D5000310519F0C9010E9445101A8219821E82AC
:101D60001D821C821B82B9CF0E9445108F819885ED
:101D7000909325038093240389859A859093270364
:101D8000809326038B859C85909329038093280359
:101D900018861F821A861986CDCF04E213E0F12C33
:101DA000E12CF801D1908F01C7010E94560FD8167F
:101DB00021F06D2DC7010E945E0FFFEFEF1AFF0AA1
:101DC00026E0E216F10469F710929D0250929E02FD
:101DD000809128039091290380939F0240912403CE
:101DE00050912503E0EAF2E09C0190E080E0821748
:101DF000930709F41ECFDA01A80FB91F4115510549
:101E000021F410929B02ABE9B2E06C9161930196D0
:101E1000EECF83E00E946A0504E213E0F12CE12C8E
:101E2000C7010E94560FF80181938F01FFEFEF1A4F
:101E3000FF0A26E0E216F10499F710929D0282E073
:101E400080939E02809128039091290380939F02A2
:101E50004091240350912503E0EAF2E09C0190E0D8
:101E600080E02817390709F4E4CEDA01A80FB91F7A
:101E70004115510521F410929B02ABE9B2E06C913F
:101E800061930196EECF81E00E946A0510929D0257
:101E900082E080939E0210929F0280EB92E00E946B
:101EA0002205ABCB84E293E00C947E06F999FECF39
:101EB00092BD81BDF89A992780B50895262FF9998A
:101EC000FECF1FBA92BD81BD20BD0FB6F894FA9A1D
:101ED000F99A0FBE019608952F923F924F925F920A
:101EE0006F927F928F929F92AF92BF92CF92DF922A
:101EF000EF92FF920F931F93CF93DF93CDB7DEB78F
:101F0000CA1BDB0B0FB6F894DEBF0FBECDBF099422
:101F10002A88398848885F846E847D848C849B8479
:101F2000AA84B984C884DF80EE80FD800C811B8187
:101F3000AA81B981CE0FD11D0FB6F894DEBF0FBEB6
:101F4000CDBFED010895EE0FFF1F0590F491E02D38
:101F500009940F931F93CF93DF938230910510F470
:101F600082E090E0E0912C03F0912D0330E020E03E
:101F7000B0E0A0E0309799F42115310509F44AC08A
:101F8000281B390B24303105D8F58A819B816115D6
:101F9000710589F1FB0193838283FE0111C04081A9
:101FA00051810281138148175907E0F048175907FA
:101FB00099F4109761F012960C93129713961C9354
:101FC0003296CF01DF91CF911F910F910895009329
:101FD0002C0310932D03F4CF2115310551F0421736
:101FE000530738F0A901DB019A01BD01DF01F801B7
:101FF000C1CFEF01F9CF90932D0380932C03CDCF68
:10200000FE01E20FF31F819391932250310939832E
:102010002883D7CF20912A0330912B03232B41F41F
:1020200020910E0130910F0130932B0320932A034E
:1020300020910C0130910D012115310541F42DB78E
:102040003EB74091100150911101241B350BE091D6
:102050002A03F0912B03E217F307A0F42E1B3F0B8A
:102060002817390778F0AC014E5F5F4F241735070A
:1020700048F04E0F5F1F50932B0340932A03819328
:1020800091939FCFF0E0E0E09CCFCF93DF93009758
:10209000E9F0FC01329713821282A0912C03B091D7
:1020A0002D03ED0130E020E01097A1F42081318173
:1020B000820F931F20912A0330912B032817390791
:1020C00009F061C0F0932B03E0932A03DF91CF91D5
:1020D0000895EA01CE17DF07E8F54A815B819E018A
:1020E00041155105B1F7E901FB83EA834991599103
:1020F000C40FD51FEC17FD0761F480819181029612
:10210000840F951FE90199838883828193819B8342
:102110008A83F0E0E0E012968D919C9113970097EE
:10212000B9F52D913C911197CD010296820F931F25
:1021300020912A0330912B032817390739F630975D
:1021400051F510922D0310922C03B0932B03A09302
:102150002A03BCCFD383C28340815181840F951F52
:10216000C817D90761F44E5F5F4F88819981480F86
:10217000591F518340838A819B81938382832115D8
:10218000310509F0B0CFF0932D03E0932C039ECFDF
:10219000FD01DC01C0CF13821282D7CFB0E0A0E0F6
:1021A000E4EDF0E10C946E0F8C01009751F4CB013B
:1021B0000E94A90F8C01C801CDB7DEB7E0E10C94F5
:1021C0008A0FFC01E60FF71F9C0122503109E2172C
:1021D000F30708F49DC0D901CD91DC911197C61782
:1021E000D70798F0C530D10530F3CE010497861794
:1021F000970708F3C61BD70B2297C193D1936D9312
:102200007C93CF010E944510D6CF5B01AC1ABD0A6A
:102210004C018C0E9D1EA0912C03B0912D03512CCE
:10222000412CF12CE12C109731F580912A039091EB
:102230002B038815990509F05CC04616570608F06F
:1022400058C080910C0190910D01009741F48DB719
:102250009EB74091100150911101841B950BE81716
:10226000F90708F055C0F0932B03E0932A03F90116
:1022700071836083A0CF8D919C91119712966C9081
:10228000129713967C901397A815B90559F56C0110
:1022900042E0C40ED11CCA14DB0420F1AC014A197F
:1022A0005B09DA011296159780F06282738251837E
:1022B0004083D9016D937C93E114F10471F0D7014F
:1022C0001396FC93EE93129776CF22968C0F9D1F58
:1022D000F90191838083F301EFCFF0932D03E09315
:1022E0002C0369CF4816590608F42C017D01D3014F
:1022F0009ACFCB010E94A90F7C01009749F0AE0153
:10230000B8010E948B11C8010E944510870153CF6C
:1023100010E000E050CFFB01DC0102C001900D9203
:1023200041505040D8F70895FB01DC0101900D9217
:102330000020E1F7089510E0CEECD0E004C0FE01EB
:102340000E94A30F2196CF3CD107C9F7F894FFCF85
:10235000FFFFFFFF00E100000000000000002E036F
:10236000800000C18081000000131200010A090CE6
:1023700004141503020D050806000000000E028D6E
:1023800003340229027A0238025602415652204989
:0423900053500000A6
:2070000055C000006EC000006CC000006AC0000068C0000066C0000064C0000062C0000043
:2070200060C000005EC00000F2C400005AC0000058C0000056C0000054C0000052C00000EE
:2070400050C0000078C000004CC000004AC0000048C0000046C0000044C0000042C00000BE
:2070600040C000003EC000003CC000003AC0000038C0000036C0000034C0000032C0000048
:2070800030C000002EC000002CC000002AC0000028C0000026C0000024C0000022C00000A8
:2070A00020C000001EC000001CC0000011241FBECFEFDAE0DEBFCDBF11E0A0E0B1E0E2E3BC
:2070C000FFE702C005900D92A83AB107D9F711E0A8EAB1E001C01D92AE3BB107E1F78FD30B
:2070E00026C78ECFF89410926F0010928100109285001092840081E085BF15BE47985D9AEB
:20710000289A0C94000008952091B2013091B3012F5F3F4F3093B3012093B201932F37FFA6
:2071200003C08EEF831B982F990F921710F447980895479A08951F920F920FB60F9211246E
:207140002F938F939F93EF93FF9310928500109284008091A8019091A901009741F00197D3
:207160009093A9018093A801892B09F45D9A8091AA019091AB01009741F001979093AB0126
:207180008093AA01892B09F4289AE0E0F0E0859194918F5F9F4F49F08091AC019091AD0151
:2071A00001969093AD018093AC01FF91EF919F918F912F910F900FBE0F901F90189584E0BC
:2071C0008093E9000DC08091E8008B778093E80003C08EB3882351F08091E80082FFF9CFBE
:2071E0008091E80085FFEFCF8091F1000895982F83E08093E9008091E80085FD0DC0809136
:20720000E8008E778093E80003C08EB3882369F08091E80080FFF9CF9093F1005D9884E6CB
:2072200090E09093A9018093A80108954F925F926F927F928F929F92AF92BF92CF92DF921E
:20724000EF92FF920F931F93CF93DF9384E08093E9008091E80082FF57C2289884E690E067
:207260009093AB018093AA01AADF182F853481F48CE49DE19093AD018093AC0107B600FC4B
:20728000FDCFF999FECF81E180935700E89503C0843519F494DF8DE00DC28C34E1F38035F9
:2072A000D1F3843721F484E4A2DF80E003C2813611F489E5FFC18134B1F481DF182F7FDFE3
:2072C00090E0880F991FAA2797FDA095BA2F312F330F20E0442737FD4095542F822B932B68
:2072E000A42BB52BB8C1803711F483E5E3C1833549F4C0E0D1E089917ADF21E0C730D20714
:20730000D1F7D9C1863521F481E371DF80E3D2C1833731F487E86BDF85E969DF8EE1CAC149
:207320008536B9F4E0E0F0E093E085E090935700E89507B600FCFDCF80935700E89507B65D
:2073400000FCFDCFE058FF4FA0E7E030FA0771F7A2CF823739F4E1E0F0E089E08093570024
:207360008491A8C1863439F4E0E0F0E089E08093570084919FC18E3439F4E3E0F0E089E0E5
:2073800080935700849196C1813539F4E2E0F0E089E08093570084918DC1823631F489E521
:2073A00026DF80E024DF80E885C1823419F0873609F0E5C01092AD011092AC0100DF082FE8
:2073C000FEDEF82EFCDE682E8554823008F071C1902F80E0CF2DD0E0C82BD92B10926F00B3
:2073E000173609F04BC081E180935700E895DD24CC24C3943FC0E090AE01F090AF010091CC
:20740000B0011091B101B6E46B16D9F4ED2DF0E0EE29FF29E4918E2FEADEDD2081F082E08D
:2074200090E0A0E0B0E0E80EF91E0A1F1B1FE092AE01F092AF010093B0011093B101DC2470
:2074400018C0D801C701B695A7959795879559D5CEDE82E090E0A0E0B0E0E80EF91E0A1FF2
:207460001B1FE092AE01F092AF010093B0011093B1012197209709F0BECF7DC08090AE01F5
:207480009090AF01A090B001B090B10196E4691609F05DC083E0F40180935700E89507B63E
:2074A00000FCFDCF54C0F6E46F1661F5772031F1E090AE01F090AF010091B0011091B1019E
:2074C0007EDED82ECC24852D90E08C299D29F7010C0140925700E895112482E090E0A0E08B
:2074E000B0E0E80EF91E0A1F1B1FE092AE01F092AF010093B0011093B10102C060DE582E1A
:20750000742423C0E090AE01F090AF010091B0011091B10116950795F794E79450DE682FFA
:20752000C701F7D48091AE019091AF01A091B001B091B1010296A11DB11D8093AE01909349
:20754000AF01A093B001B093B101219704C05524772444244394209709F0A5CF96E46916B6
:2075600041F485E0F40180935700E89507B600FCFDCF8DE03CDE82E080936F009CC0833492
:2075800071F40091AE011091AF0119DE90E021E0F8010C0120935700E89511247CCE8336C8
:2075A00019F5E090AE01F090AF010091B0011091B10105DEF701E16090E021E00C0120938C
:2075C0005700E895112482E090E0A0E0B0E0E80EF91E0A1F1B1FE092AE01F092AF0100936A
:2075E000B0011093B10157CE8D3661F4E091AE01F091AF0185E080935700E89507B600FCF2
:20760000FDCF49CE823551F4E091AE01F091AF0105911491812FEBDD802F4CC0843421F5FE
:20762000E090AE01F090AF010091B0011091B10116950795F794E794C2DD682FC70169D4DE
:207640008091AE019091AF01A091B001B091B1010296A11DB11D8093AE019093AF01A093D8
:20766000B001B093B10117CE843609F5E090AE01F090AF010091B0011091B101D801C70142
:20768000B695A795979587953CD4B1DD82E090E0A0E0B0E0E80EF91E0A1F1B1FE092AE010A
:2076A000F092AF010093B0011093B10104C08B3111F08FE39CDD83E08093E9009091E8002B
:2076C0008091E8008E778093E80095FF04C010C08EB38823C9F08091E80080FFF9CF809193
:2076E000E8008E778093E80003C08EB3882361F08091E80080FFF9CF84E08093E9008091F1
:20770000E8008B778093E800DF91CF911F910F91FF90EF90DF90CF90BF90AF909F908F90AC
:207720007F906F905F904F9008959091B601892F8F77813249F58091B7018032A1F081328A
:2077400019F5913A09F58091E800877F8093E8008DE091E067E070E00BD28091E8008B770B
:207760008093E8000895913279F48091E800877F8093E8008DE091E067E070E05DD2809192
:20778000E8008E778093E800089582E061EC42E0B5D083E061E842E1B1D084E060E842E1EF
:2077A000ADC084B7877F84BF88E10FB6F89480936000109260000FBE20E880E090E00FB63F
:2077C000F89420936100809361000FBE81E085BF92E095BF3F9A209A559AE1E6F0E02083A1
:2077E000108247985D9A289A109289008AEF8093880090936F0083E080938100F0C0409116
:20780000000850910108109201081092000894B714BE88E10FB6F8948093600010926000D5
:207820000FBE292F30E0F901E270F07091FD18C090FF05C0859194918F5F9F4F81F423FFFF
:207840000FC08091090190910A014817590741F0E0E0F0E0859194918F5F9F4F09F042DC64
:20786000A0DF78941092AD011092AC010CC0DEDC36D38091AC019091AD0181549F4110F00D
:207880001092140141DC80911401882381F78091E00081608093E00025DC80E090E0089598
:2078A000FA01923049F0933061F09130F9F485E191E022E130E01EC087E291E02EE330E04D
:2078C00019C0882329F485E691E024E030E012C0813029F489E691E022E230E00BC0823006
:2078E00029F48DE891E028E130E004C080E090E020E030E091838083C90108958093E9004E
:207900008091EB0081608093EB001092ED006093EC004093ED008091EE00881F8827881F62
:2079200008958091B60188238CF403C08EB38823B1F08091E80082FFF9CF8091E8008B772A
:207940008093E80008958EB3882349F08091E80080FFF9CF8091E8008E778093E800089594
:20796000EF92FF920F931F9345D04CD008ED10E0F80180818F77808380818068808380819B
:207980008F7D808319BC1EBA1092B40180EEE82EF12CF70180818B7F8083F8018081816052
:2079A000808380E060E042E0A9DFE1EEF0E080818E7F8083E2EEF0E0808181608083808144
:2079C00088608083F70180818E7F8083F8018081806180831F910F91FF90EF900895E7ED06
:2079E000F0E08081816080838AE482BF81E08093B501B6CFE8EDF0E080818E7F808310921C
:207A0000E20008951092DA001092E10008951F920F920FB60F9211242F933F934F935F93F6
:207A20006F937F938F939F93AF93BF93EF93FF938091DA0080FF1BC08091D80080FF17C0B2
:207A40008091DA008E7F8093DA008091D90080FF0BC080E189BD82E189BD09B400FEFDCF36
:207A600081E08EBB3BD203C019BC1EBA37D28091E10080FF17C08091E20080FF13C0809138
:207A8000E2008E7F8093E2008091E20080618093E2008091D80080628093D80019BC85E049
:207AA0008EBB1CD28091E10084FF2CC08091E20084FF28C080E189BD82E189BD09B400FEC5
:207AC000FDCF8091D8008F7D8093D8008091E1008F7E8093E1008091E2008F7E8093E20012
:207AE0008091E20081608093E2008091B401882331F48091E30087FD02C081E001C084E067
:207B00008EBBECD18091E10083FF21C08091E20083FF1DC08091E100877F8093E10082E06A
:207B20008EBB1092B4018091E1008E7F8093E1008091E2008E7F8093E2008091E2008061E9
:207B40008093E20080E060E042E0D8DEC7D1FF91EF91BF91AF919F918F917F916F915F9130
:207B60004F913F912F910F900FBE0F901F9018959C014091BC015091BD014617570718F49D
:207B8000F90190E044C06115710511F0AB01F8CF8091E8008E778093E80040E050E0F0CF0F
:207BA0008EB3882309F444C0853009F443C08091E80083FF02C081E008958091E80082FD70
:207BC00031C08091E80080FF22C08091F3009091F200782F60E0292F30E0262B372B07C07A
:207BE00081918093F100415050402F5F3F4F4115510519F02830310598F390E02830310566
:207C000009F491E08091E8008E778093E8004115510531F6992321F605C08EB3882341F075
:207C2000853041F08091E80082FFF7CF80E0089582E0089583E008959C016115710529F47C
:207C40008091E8008B778093E800F90126C08EB3882391F1853091F18091E80083FF02C06C
:207C600081E008958091E80082FFF1CF06C08091F10081936150704059F02091F300809191
:207C8000F200322F20E090E0822B932B892B79F78091E8008B778093E80061157105B9F601
:207CA00005C08EB3882341F0853041F08091E80080FFF7CF80E0089582E0089583E00895C2
:207CC0000F931F93DF93CF9300D0CDB7DEB7E6EBF1E08091F100819381E0EE3BF807C9F792
:207CE00024DD8091E80083FFE4C08091B6019091B701953009F46DC0963040F4913081F1A7
:207D0000913070F0933009F0D4C02AC0983009F4A3C0993009F4B2C0963009F0CAC07CC023
:207D2000803809F4C6C0823809F0C3C08091BA0187708093E9008091EB001092E9002091DB
:207D4000E800277F2093E80090E025E0969587952A95E1F781708093F1001092F10087C0D8
:207D6000882319F0823009F0A4C08F71823009F0A0C08091B801882331F52091BA01277097
:207D800009F497C02093E9008091EB0080FF1BC0933021F48091EB00806213C08091EB0018
:207DA00080618093EB0081E090E002C0880F991F2A95E2F78093EA001092EA008091EB00E5
:207DC00088608093EB001092E9008091E800877F51C0882309F06DC01091B8011F770FB79B
:207DE000F8948091E800877F8093E8009ADD8091E80080FFFCCF8091E3008078812B809398
:207E0000E30080688093E300112311F482E001C083E08EBB0FBF4DC08058823008F049C033
:207E20008091B8019091B9016091BA01AE014F5F5F4F36DDBC01009709F43BC08091E8008E
:207E4000877F8093E80089819A8192DE8091E8008B778093E8002DC0803859F58091E800AA
:207E6000877F8093E8008091B4018093F1008091E8008E778093E80054DD1BC08823C9F4CA
:207E80009091B8019230A8F48091E800877F8093E8009093B40145DD8091B401882331F420
:207EA0008091E30087FD02C081E001C084E08EBB6CDC8091E80083FF0AC08091EB0080624E
:207EC0008093EB008091E800877F8093E8000F900F90CF91DF911F910F91089508951F9360
:207EE0008EB3882361F01091E9001092E9008091E80083FF01C0E4DE17701093E9001F916F
:207F00000895F999FECF92BD81BDF89A992780B50895262FF999FECF1FBA92BD81BD20BDBD
:207F20000FB6F894FA9AF99A0FBE01960895F894FFCF4341544552494E4100777700080031
:207F40000000000000080112011001020000084123360001000201000109023E00020100FF
:207F600080320904000001020201000524001001042402040524060001070582030800FF0C
:207F800009040100020A000000070504021000010705830210000104030904220341007216
:207FA000006400750069006E006F0020004C0065006F006E006100720064006F0000001836
:1A7FC00003410072006400750069006E006F0020004C004C004300000000D7
:00000001FF
