:100000000C94CE000C94F6000C94F6000C94F600C0
:100010000C94F6000C94F6000C94F6000C94F60088
:100020000C94F6000C94F6000C94DB030C944A0438
:100030000C94F6000C94F6000C94F6000C94F60068
:100040000C94F6000C94F6000C94F6000C94F60058
:100050000C94F6000C94F6000C94F6000C947C06BC
:100060000C94F6000C94F6000C94F6000C94F60038
:100070000C94F6000C94F6000C94F6000C94F60028
:100080000C94F6000C94F6000C94F6000C94F60018
:100090000C94F6000C94F6000C94F6000C94F60008
:1000A0000C94F6000C94F6000C94F600000000028C
:1000B00000090F0000030401000C00000000000014
:1000C0000000000000000000000000080B00020219
:1000D00002000009040000010202000005240010D3
:1000E000010524010101042402060524060001077C
:1000F00005810310004009040100020A0000000706
:1001000005020240000007058302400000040309C5
:100110000412010002EF0201404123368000010178
:1001200002030141726475696E6F204C4C430041BB
:10013000726475696E6F204C656F6E6172646F00DA
:1001400000000000250028002B002E0031000000D8
:100150000000240027002A002D00300004040404BD
:10016000040304050202020204030202020206065C
:100170000606060604040202020404040802011032
:1001800040804010204080408008020401804020D0
:1001900010020110801020404020330811241FBE9F
:1001A000CFEFDAE0DEBFCDBF11E0A0E0B1E0ECE6DA
:1001B000F1E102C005900D92A632B107D9F721E016
:1001C000A6E2B1E001C01D92A63AB207E1F710E045
:1001D000CEECD0E004C02197FE010E94AE08CD3CD9
:1001E000D107C9F70E94C6060C94B4080C9400000D
:1001F00090E0FC01E558FE4F2491845A9E4FFC018B
:100200008491882399F090E0880F991FFC01E25BAC
:10021000FE4FA591B491FC01E05CFE4F8591949155
:100220008FB7F894EC91E22BEC938FBF0895FC010B
:100230008091A501882311F13FB7F89482E0809363
:10024000E9002091F200822F90E01816190614F4AC
:1002500081E090E0882339F0289844E64093A40197
:100260004091F1004083222339F02091F2002111C6
:1002700003C02BE62093E8003FBF08958FEF9FEF68
:1002800008952FB7F89483E08093E9009091E800F7
:10029000892F807295FF04C09091F20080E4891B41
:1002A0002FBF089580919C0181110DC082E0809341
:1002B000980184E08093990110929B0110929A0119
:1002C00081E080939C0188E991E00895409131019B
:1002D0005091320120912F01309130014217530784
:1002E000B4F49091E8009570E1F39091E80092FDEC
:1002F00019C08093F10080913101909132010196F3
:100300008F739927892B19F48EEF8093E8008091E1
:100310003101909132010196909332018093310125
:1003200081E0089580E00895EF92FF920F931F936C
:10033000CF93DF93F82E192FE62E042F81E0860F3E
:10034000880F0E94660183E00E946601CF2DD12FA5
:10035000EC0EFD2EF11CCE15DF05B9F007FF13C022
:10036000FE0184910E946601182F80E00E946601C0
:10037000812321968111EFCFDF91CF911F910F91B2
:10038000FF90EF9008958881EDCF81E0F5CFDF9267
:10039000EF92FF920F931F93CF93DF93D82E8A0192
:1003A000EB017B01E40EF51ECE15DF0559F0D7FEFB
:1003B00012C0FE0184910E94660121968111F4CF42
:1003C0000FEF1FEFC801DF91CF911F910F91FF90A9
:1003D000EF90DF9008958881EECF0F931F93CF9316
:1003E000DF931F92CDB7DEB782E0898342E450E00D
:1003F0006BEC70E080E80E94C7010E945201DC01B2
:1004000012960D911C910115110589F0D801ED91FD
:10041000FC910280F381E02DBE016F5F7F4FC80128
:10042000099597FD04C0F80100851185ECCF8981FD
:100430000F90DF91CF911F910F910895615030F08F
:100440002091F100FC0120830196F8CF289884E6E2
:100450008093A4010895CF93DF931F92CDB7DEB7A9
:100460006983DC01ED91FC910280F381E02D41E094
:1004700050E0BE016F5F7F4F09950F90DF91CF91E4
:10048000089583E08093E9008091F200882319F0B9
:100490008AE38093E80008950E94410190E0089566
:1004A000CF93DF931F92CDB7DEB7FC01848595858E
:1004B00097FD08C02FEF3FEF358724870F90DF911E
:1004C000CF910895CE0101960E941701019719F46A
:1004D000898190E0F3CF8FEF9FEFF0CF0F931F93C1
:1004E000CF93DF931F92CDB7DEB78C01FC018485DB
:1004F000958597FF0BC0CE0101960E9417010197C9
:1005000071F4898190E0F80195878487F8018485EA
:1005100095850F90DF91CF911F910F9108958FEFE7
:100520009FEFF1CFFC018485958597FD0BC09FB7A8
:10053000F89482E08093E9008091F2009FBF90E000
:10054000019608959FB7F89482E08093E900809126
:10055000F2009FBF90E00895282F30E0F901E455A4
:10056000FF4F9491F901E558FE4F8491245A3E4F74
:10057000F9012491222309F430C09923E9F0915024
:100580009F30D0F4E92FF0E0E853FD4F0C94AE0813
:10059000F602FA02D702EE02F202DC02DC02DC0210
:1005A000FD02030307030B031103DC021503909103
:1005B00080009F7790938000E22FF0E0EE0FFF1F06
:1005C000E05CFE4FA591B4919FB7F894EC91611156
:1005D00032C080958E238C939FBF089590918000A8
:1005E0009F7DE8CF90918000977FE4CF94B59F776F
:1005F00094BDE2CF94B59F7DFBCF909190009F7703
:1006000090939000D9CF909190009F7DF9CF9091D9
:100610009000977FF5CF9091C0009F779093C00096
:10062000CBCF9091C0009F7DF9CF9091C200977F72
:100630009093C200C1CF8E2BCECF3FB7F89480915C
:100640002B0190912C01A0912D01B0912E0126B586
:10065000A89B05C02F3F19F00196A11DB11D3FBFFA
:10066000BA2FA92F982F8827BC01CD01620F711DC9
:10067000811D911D42E0660F771F881F991F4A95C3
:10068000D1F70895CF92DF92EF92FF920E941D035F
:100690006B017C010E941D036C197D098E099F0965
:1006A000683E734081059105A8F3FF90EF90DF90BD
:1006B000CF9008958F929F92AF92BF92CF92DF9288
:1006C000EF92FF920F931F93CF93DF936C017B0107
:1006D0008A0180910B01882309F458C08091A501FB
:1006E000882309F453C08091350180FF05C08091B3
:1006F000E00082608093E000E801B12C8AEFA82E30
:1007000093E0892E2AE3922E209711F4BB20B9F1B1
:100710000E944101811106C0AA94AA20B9F10E9449
:100720004203F2CF8C171D0611F00CF08C2F9FB7EF
:10073000F8948092E9002091E80025FD02C09FBF57
:10074000E3CF282F30E0C21BD30BF701815020F0FC
:1007500041914093F100FACFE20EF31EBB2021F04D
:100760009092E800B12CEBCF8091E80085FDE7CFB7
:100770009092E800BB24B394209709F3F3CF5D98DF
:1007800084E680933401101611063CF081E090E07D
:10079000F6019383828310E000E0C801DF91CF91DE
:1007A0001F910F91FF90EF90DF90CF90BF90AF908F
:1007B0009F908F9008951F920F920FB60F92112461
:1007C0008F939F938091E1009091E100937F9093AC
:1007D000E10083FF0FC01092E90091E09093EB00DD
:1007E0001092EC0092E39093ED001092A50198E036
:1007F0009093F00082FF22C093E09093E9009091E3
:10080000F200992319F09AE39093E8009091340153
:10081000992341F0909134019150909334019111BA
:1008200001C05D9A9091A401992341F09091A40197
:1008300091509093A401911101C0289A84FF18C08F
:100840008091E2008E7E81608093E2008091E100E1
:100850008F7E8093E100809135018E7E8061809350
:1008600035019F918F910F900FBE0F901F9018959B
:1008700080FFF7CF8091E2008E7E80618093E2005E
:100880008091E1008E7E8093E100809135018E7E23
:100890008160E5CF1F920F920FB60F921124CF9275
:1008A000DF92EF92FF920F931F932F933F934F93FB
:1008B0005F936F937F938F939F93AF93BF93EF93C8
:1008C000FF93CF93DF93CDB7DEB76C97DEBFCDBF7D
:1008D0001092E9008091E80083FF25C068E0CE0116
:1008E00045960E941E0282EF8093E8008D8987FF63
:1008F00039C09091E80090FFFCCF982F907609F0D6
:1009000034C19E894F89588D2F89F88C911131C03F
:10091000803861F5809136018093F1001092F100EA
:100920008EEF8093E8006C960FB6F894DEBF0FBE92
:10093000CDBFDF91CF91FF91EF91BF91AF919F918B
:100940008F917F916F915F914F913F912F911F9167
:100950000F91FF90EF90DF90CF900F900FBE0F9010
:100960001F9018959EEF9093E800C7CF1092F1006A
:10097000D5CF913059F48111D3CF4130510581F653
:10098000809136018D7F80933601CACF933049F430
:100990008111C6CF4130510519F680913601826030
:1009A000F2CF953041F48091E80080FFFCCF2068C1
:1009B0002093E300B5CF963009F0A9C00B8D1C8DB4
:1009C00022E01092E9001092320110923101F212ED
:1009D0002EC01092300110922F010E94ED011F8253
:1009E00099E09983FA8291E09E8390EA98879AEF42
:1009F00099872091310130913201275F3F4F3C832D
:100A00002B838D831092E9001092320110923101F4
:100A10001093300100932F0149E050E0BE016F5F59
:100A20007F4F80E00E94C7010E94ED0179CF1093B3
:100A3000300100932F010E945201DC0112960D91AA
:100A40001C910115110509F451C1D801ED91FC91DA
:100A50000480F581E02DBE016B5E7F4FC8010995D2
:100A6000009709F03EC1F80100851185EACFF3E057
:100A7000FF120EC08F89882309F440C0823061F4D0
:100A800040E860E18FE291E00E949401811148CF3B
:100A900081E28093EB0047CF813029F440E86BE09E
:100AA00083E291E0F1CF833099F70E945201DC019B
:100AB0001296ED90FC908E010F5F1F4F6801E114BC
:100AC000F10479F0D701ED91FC910680F781E02DDA
:100AD000B801C7010995080F111DF701E084F184E1
:100AE000EECFD8011C92F60101900020E9F7319772
:100AF000BF016C197D0940E0C601C6CF6DE071E011
:100B0000FB01449150E080E80E94C70109CF973073
:100B100009F4BECF983021F481E08093F10000CF3A
:100B2000993009F0FDCE837009F0B2CFEFE1F1E02A
:100B300081E031E096E32191222371F08093E90076
:100B40003093EB00DF0111972C912093EC009093F0
:100B5000ED008F5F873079F78EE78093EA0010927F
:100B6000EA008F898093A501DBCE8B8D9C8D10923E
:100B7000E90010923201109231019093300180937C
:100B80002F01898D811192C08E899D89913A49F4F6
:100B9000813209F07DCF47E050E064E071E080E011
:100BA000B3CF913209F074CF833269F48F89988D75
:100BB000B0E0A0E08093000190930101A0930201B6
:100BC000B0930301ADCE803269F48091E80082FFDA
:100BD000FCCF67E084E091E00E941E028BEF8093DF
:100BE000E8009ECE823209F09BCE8F8980930B0164
:100BF000EEEFFFE7859194918B3F9C4D51F1E0E042
:100C0000F8E08091040190910501A0910601B09156
:100C10000701803B9440A105B105F1F480910B01DF
:100C200080FD1AC0EE3F8AE0F80789F587E797E76D
:100C300091838083809160008093330188E19BE001
:100C40000FB6F894A895809360000FBE9093600053
:100C500067CEEEEFFAE0D5CF808191818737974755
:100C600009F05ECEA8958091600088618093600055
:100C70008091330180936000EE3F2AE0F20789F013
:100C80008091FE0A9091FF0A9183808349CE8081F2
:100C900091818737980751F29093FF0A8093FE0A5B
:100CA000C5CF1092FF0A1092FE0A3ACE0E9452015E
:100CB000DC0112960D911C910115110509F4E8CE85
:100CC000D801ED91FC910190F081E02DBE016B5EA9
:100CD0007F4FC8010995811123CEF8010085118548
:100CE000EBCF181619060CF41BCED2CEF1E0FF1292
:100CF000BECE61E171E004CF1F920F920FB60F924A
:100D000011242F933F938F939F93AF93BF93809121
:100D1000270190912801A0912901B0912A013091D9
:100D2000260123E0230F2D3758F50196A11DB11D93
:100D3000209326018093270190932801A0932901F5
:100D4000B0932A0180912B0190912C01A0912D014B
:100D5000B0912E010196A11DB11D80932B0190939E
:100D60002C01A0932D01B0932E01BF91AF919F91C3
:100D70008F913F912F910F900FBE0F901F9018955C
:100D800026E8230F0296A11DB11DD2CF789484B519
:100D9000826084BD84B5816084BD85B5826085BD77
:100DA00085B5816085BD80916E00816080936E0005
:100DB00010928100809181008260809381008091F7
:100DC00081008160809381008091800081608093A8
:100DD00080008091910082608093910080919100C9
:100DE0008160809391008091900081608093900059
:100DF0008091C10084608093C1008091C1008260B5
:100E00008093C1008091C10081608093C100809176
:100E1000C30081608093C3008091C0008260809392
:100E2000C0008091C20081608093C20080917A00EE
:100E3000846080937A0080917A00826080937A0047
:100E400080917A00816080937A0080917A00806836
:100E500080937A001092A50110923601109235010C
:100E60008091D70081608093D70080EA8093D8007A
:100E700089B5806189BD89B5826089BD09B400FEEC
:100E8000FDCF0E9442038091D8008F7C80618093C7
:100E9000D8008091E000807F8093E0008091E100A5
:100EA0008E7E8093E1008DE08093E200559A209A37
:100EB0008FEF9FEF909355018093540187E00E943C
:100EC000F8008BE00E94F80087E10E94F80083E1BF
:100ED0000E94F80061E083E10E94AC02CFB7F89471
:100EE00080913701811124C0EDE6F1E08491ECE8B6
:100EF000F1E09491E82FF0E0EE0FFF1FE25BFE4F70
:100F0000A591B491EC91E92321F461E081E10E9483
:100F1000AC0281E10E94F8008CB580618CBD8CB57B
:100F200080648CBD8FE00E94F80080E10E94F80090
:100F3000809137018F5F80933701CFBF60E087E0FA
:100F40000E94AC0261E08BE00E94AC0261E087E1AC
:100F50000E94AC0200E010E088E491E00E945002A0
:100F6000809347018F3F09F077C088E491E00E94A9
:100F700050024C018093460188E491E00E945002A7
:100F8000C82F8093450188E491E00E94500280932D
:100F900044012AE3E22E21E0F22E5C01BB24C701CA
:100FA0008A5391408A159B0544F488E491E00E949D
:100FB0005002F70181937F01F2CF88E491E00E9413
:100FC00050027C018093390188E491E00E94500234
:100FD000D82E809338019924FFEF8F0E911CC80DF5
:100FE000D92DD11DCA0DDB1DEAE3F1E0CF018A53F3
:100FF00091408A159B0524F48191C80FD11DF6CF2D
:101000006D2F772767FD7A95072E000C880B990BBB
:101010000E944F084B015C01B7017727072E000C97
:10102000880B990B0E944F089B01AC01C501B401CC
:101030000E944808811110C0DD27DC161D0661F4EE
:1010400061E087E00E94AC0261E08BE00E94AC02AC
:1010500060E087E10E94AC020115110509F47CCF24
:101060000E94000079CFE8E4F1E01382128288EE5A
:1010700093E0A0E0B0E084839583A683B78380E10A
:1010800091E0918380838FEF9FEF95878487089508
:101090000E948A0808F481E00895E89409C097FB4B
:1010A0003EF490958095709561957F4F8F4F9F4F3F
:1010B0009923A9F0F92F96E9BB279395F695879583
:1010C00077956795B795F111F8CFFAF4BB0F11F446
:1010D00060FF1BC06F5F7F4F8F4F9F4F16C08823ED
:1010E00011F096E911C0772321F09EE8872F762F23
:1010F00005C0662371F096E8862F70E060E02AF064
:101100009A95660F771F881FDAF7880F969587954F
:1011100097F90895990F0008550FAA0BE0E8FEEF24
:1011200016161706E807F907C0F012161306E407AB
:10113000F50798F0621B730B840B950B39F40A26A4
:1011400061F0232B242B252B21F408950A2609F482
:10115000A140A6958FEF811D811D0895EE0FFF1F01
:0C1160000590F491E02D0994F894FFCF65
:10116C00FFFFFFFF00E10000000000000000000096
:10117C002B025A034C024102920250026E0200C131
:06118C008081000000005C
:00000001FF
