:100000000C945D000C9485000C9485000C94850084
:100010000C9485000C9485000C9485000C9485004C
:100020000C9485000C9485000C9485000C94A80217
:100030000C9485000C9485000C9485000C9485002C
:100040000C945E020C9464030C9485000C9485005F
:100050000C9485000C9485000C9485000C9485000C
:100060000C9485000C94850000000008000201003B
:100070000003040700000000000000000000000072
:10008000250028002B0000000000240027002A0083
:10009000040404040404040402020202020203032E
:1000A0000303030301020408102040800102040836
:1000B00010200102040810209E0411241FBECFEF5F
:1000C000D8E0DEBFCDBF11E0A0E0B1E0E6ECFAE0A1
:1000D00002C005900D92A030B107D9F721E0A0E051
:1000E000B1E001C01D92A93BB207E1F710E0CDE5F8
:1000F000D0E004C02197FE010E945B05CC35D107FA
:10010000C9F70E9492030C9461050C940000809141
:10011000A3019091A401482F490F5527551F8091A5
:10012000A501840F952F911D2091A60130E0820F2B
:10013000931FE3EAF1E0AF01435A514042175307DE
:100140002CF44481840F911D3196F5CF9093B80122
:100150008093B701089590E0FC01EC55FF4F249186
:1001600080579F4FFC018491882399F090E0880F7D
:10017000991FFC01EA57FF4FA591B491FC01E45887
:10018000FF4F859194918FB7F894EC91E22BEC930B
:100190008FBF089590E0FC01E859FF4F2491FC01C6
:1001A000EC55FF4F3491FC01E057FF4FE491EE23F3
:1001B000C9F0222339F0233001F1A8F4213019F1DC
:1001C000223029F1F0E0EE0FFF1FE458FF4FA59118
:1001D000B4918FB7F894EC91611126C030953E230D
:1001E0003C938FBF08952730A9F02830C9F0243000
:1001F00049F7809180008F7D03C0809180008F77C8
:1002000080938000DFCF84B58F7784BDDBCF84B54A
:100210008F7DFBCF8091B0008F778093B000D2CFDD
:100220008091B0008F7DF9CF3E2BDACFCF92DF9255
:10023000EF92FF92CF93DF93EC01603282E0780778
:10024000CCF5653B710514F064EB70E0898128E81A
:1002500030E0281B310987FD3395220F331F220F11
:10026000331F6901330FEE08FF088A8128E532E069
:10027000281B310987FD3395220F331F220F331FAF
:10028000032E000C440B550B2C193D094E095F0938
:10029000DB0177FF02C0B0E0A0E00E94160524EB6E
:1002A00030E040E050E00E94EC04C20ED31EE41E99
:1002B000F51EB601E881EC3070F5298188E890E000
:1002C000821B910927FD9395880F991F880F991F0D
:1002D000681779077CF02A8188E592E0821B9109F2
:1002E00027FD9395880F991F880F991F6817790725
:1002F0000CF4CB010297880F991F4FB7F8942E2F5B
:1003000030E0F901EE0FFF1FE20FF31FE659FE4F39
:10031000928381834FBFDF91CF91FF90EF90DF9069
:10032000CF9008951F93CF93DF93EC01162F888110
:100330008C3008F04DC0862F0E94AB008881282F9A
:1003400030E0F901EE0FFF1FE20FF31FE659FE4FF9
:100350001F736081607C612B608319821A822CE09C
:10036000622F0E944F05829FB001112430E020E0EF
:10037000AB01420F531FFA01EE0FFF1FE40FF51FF1
:10038000E659FE4F908196FD16C02F5F3F4F2C30EF
:10039000310571F781110FC01092800082E08093C7
:1003A00081001092850010928400B19A80916F00B4
:1003B000826080936F00E8818E2F90E0FC01EE0F49
:1003C000FF1FE80FF91FE659FE4F8081806480838C
:1003D0008881DF91CF911F9108952091660130911E
:1003E0006701809164019091650128173907A9F38D
:1003F00080916601909167019093650180936401FB
:100400000895CF93DF938091A3018EBD0E94ED01EB
:100410008091A4018EBD0E94ED018091A5018EBD49
:100420000E94ED018091A6018EBD0E94ED01C3EAFC
:10043000D1E0CE01835A914021962091A601281740
:10044000190631F02CF08B818EBD0E94ED01F1CFA9
:100450000E9487008091B8018EBD0E94ED018091BD
:10046000B7018EBDDF91CF910C94ED012091660113
:1004700030916701809164019091650128173907D7
:10048000A9F3E0916401F0916501E050FF4F808194
:1004900020916401309165012336310521F41092D9
:1004A00065011092640120916401309165012F5F14
:1004B0003F4F309365012093640108951F920F927E
:1004C0000FB60F9211242F933F938F939F93AF9367
:1004D000BF9380919F019091A001A091A101B09143
:1004E000A20130919E0123E0230F2D3758F501968C
:1004F000A11DB11D20939E0180939F019093A001A7
:10050000A093A101B093A20180919A0190919B01C7
:10051000A0919C01B0919D010196A11DB11D8093F8
:100520009A0190939B01A0939C01B0939D01BF9170
:10053000AF919F918F913F912F910F900FBE0F9090
:100540001F90189526E8230F0296A11DB11DD2CF4A
:100550001F920F920FB60F9211242F933F934F9338
:100560005F936F937F938F939F93AF93BF93CF933B
:10057000DF93EF93FF9380916901C0916801D0E010
:1005800087FF24C010928500109284008091690139
:100590008F5F8093690180916901082E000C990B8F
:1005A0008C179D0724F4809169018C30C4F18091EF
:1005B000840090918500049680349C4908F47AC0A8
:1005C0008091840090918500049676C080916901A5
:1005D000082E000C990B8C179D07C4F6E091690159
:1005E0008E2FEE0F990BFC01EE0FFF1FE80FF91F86
:1005F000E659FE4F808186FFC9CFE09169018E2FB9
:10060000EE0F990BFC01EE0FFF1FE80FF91FE659E3
:10061000FE4F808160E08F730E94CA00B7CF2091A7
:10062000840030918500E09169018E2FEE0F990BC7
:10063000FC01EE0FFF1FE80FF91FE659FE4F818105
:100640009281820F931F9093890080938800E0919C
:1006500069018E2FEE0F990BFC01EE0FFF1FE80FC3
:10066000F91FE659FE4F808186FF11C0E0916901B4
:100670008E2FEE0F990BFC01EE0FFF1FE80FF91FF5
:10068000E659FE4F808161E08F730E94CA00FF919E
:10069000EF91DF91CF91BF91AF919F918F917F911A
:1006A0006F915F914F913F912F910F900FBE0F90DF
:1006B0001F90189580E49CE99093890080938800AE
:1006C0008FEF80936901E3CF1F920F920FB60F92C5
:1006D00011248F939F93EF93FF93E0916601F09124
:1006E00067018EB5E050FF4F808380916601909145
:1006F00067018336910521F410926701109266011B
:1007000080916601909167010196909367018093B3
:100710006601FF91EF919F918F910F900FBE0F9007
:100720001F901895789484B5826084BD84B58160EB
:1007300084BD85B5826085BD85B5816085BD8091AC
:100740006E00816080936E00109281008091810024
:10075000826080938100809181008160809381001C
:10076000809180008160809380008091B1008460DE
:100770008093B1008091B00081608093B00080913F
:100780007A00846080937A0080917A0082608093FE
:100790007A0080917A00816080937A0080917A005B
:1007A000806880937A001092C10080E00E94AB00C4
:1007B00080E10E94AB0081E10E94AB008CE00E94CE
:1007C000AB0062E170E081E991E00E94920163E197
:1007D00070E08EE891E00E9492018CB580648CBD3F
:1007E0008CB58F7E8CBD8CB580688CBD61E080E05F
:1007F0000E94CA0060E080E10E94CA0061E081E1DD
:100800000E94CA00789470E060E081E991E00E9463
:10081000160193E0F92E00E010E01092A301809100
:10082000A3018F3F29F00E9436028093A301F7CFE6
:100830000E9436028093A4010E9436028093A50193
:100840000E9436028093A60183EAC82E81E0D82E4A
:10085000C601835A9140C091A601D0E02FEFC21A81
:10086000D20A8C179D072CF40E943602F60183836E
:10087000EFCF0E943602CD55DE4F8C83C091A6018A
:10088000D0E025960E943602CD55DE4F88830E9427
:1008900087008091A60190E0FC01E955FE4F308170
:1008A0002091B801321315C088559E4FFC019081EC
:1008B0008091B70198130DC08091A501893029F16D
:1008C0008831A1F00115110509F4A7CF0E9400009D
:1008D000A4CF60E080E00E94CA0061E080E10E9455
:1008E000CA0061E081E10E94CA00ECCF61E080E0D3
:1008F0000E94CA0061E080E10E94CA0060E081E1DC
:100900000E94CA000E940102DDCF61E080E00E94E7
:10091000CA0061E080E10E94CA0060E081E10E94BB
:10092000CA006091A80170E08091A7018F9DC0016D
:1009300011248C569E4F0E941601E4CF80916801CD
:100940008C3008F041C091E0980F9093680180933B
:10095000910190E0FC01EE0FFF1FE80FF91FE6592F
:10096000FE4F88EB9BE092838183809168018C30FD
:1009700078F591E0980F9093680180938E0190E054
:10098000FC01EE0FFF1FE80FF91FE659FE4F88EB41
:100990009BE0928381838091910190919201A0913B
:1009A00093018093940190939501A0939601809177
:1009B0008E0190918F01A091900180939701909367
:1009C0009801A093990108958FEF80939101CDCF65
:1009D0008FEF80938E01DFCF052E97FB1EF40094DE
:1009E0000E94030557FD07D00E941E0507FC03D097
:1009F0004EF40C94030550954095309521953F4F4A
:100A00004F4F5F4F089590958095709561957F4FFA
:100A10008F4F9F4F08950E944005A59F900DB49F52
:100A2000900DA49F800D911D11240895B7FF0C9483
:100A30000B050E940B05821B930B0895A1E21A2E51
:100A4000AA1BBB1BFD010DC0AA1FBB1FEE1FFF1F72
:100A5000A217B307E407F50720F0A21BB30BE40BC2
:100A6000F50B661F771F881F991F1A9469F7609509
:100A70007095809590959B01AC01BD01CF010895C3
:100A8000A29FB001B39FC001A39F700D811D1124CF
:100A9000911DB29F700D811D1124911D0895991B08
:100AA00079E004C0991F961708F0961B881F7A9565
:100AB000C9F780950895EE0FFF1F0590F491E02D82
:060AC0000994F894FFCF39
:107E0000112484B714BE81FFF0D085E080938100F7
:107E100082E08093C00088E18093C10086E0809377
:107E2000C20080E18093C4008EE0C9D0259A86E02C
:107E300020E33CEF91E0309385002093840096BBD3
:107E4000B09BFECF1D9AA8958150A9F7CC24DD24C4
:107E500088248394B5E0AB2EA1E19A2EF3E0BF2EE7
:107E6000A2D0813461F49FD0082FAFD0023811F036
:107E7000013811F484E001C083E08DD089C08234E0
:107E800011F484E103C0853419F485E0A6D080C0E4
:107E9000853579F488D0E82EFF2485D0082F10E0AE
:107EA000102F00270E291F29000F111F8ED06801E7
:107EB0006FC0863521F484E090D080E0DECF843638
:107EC00009F040C070D06FD0082F6DD080E0C81688
:107ED00080E7D80618F4F601B7BEE895C0E0D1E017
:107EE00062D089930C17E1F7F0E0CF16F0E7DF06D8
:107EF00018F0F601B7BEE89568D007B600FCFDCFD4
:107F0000A601A0E0B1E02C9130E011968C91119780
:107F100090E0982F8827822B932B1296FA010C0160
:107F200087BEE89511244E5F5F4FF1E0A038BF0790
:107F300051F7F601A7BEE89507B600FCFDCF97BE46
:107F4000E89526C08437B1F42ED02DD0F82E2BD052
:107F50003CD0F601EF2C8F010F5F1F4F84911BD097
:107F6000EA94F801C1F70894C11CD11CFA94CF0C13
:107F7000D11C0EC0853739F428D08EE10CD085E9AC
:107F80000AD08FE07ACF813511F488E018D01DD067
:107F900080E101D065CF982F8091C00085FFFCCF94
:107FA0009093C60008958091C00087FFFCCF809118
:107FB000C00084FD01C0A8958091C6000895E0E648
:107FC000F0E098E1908380830895EDDF803219F02E
:107FD00088E0F5DFFFCF84E1DECF1F93182FE3DFCA
:107FE0001150E9F7F2DF1F91089580E0E8DFEE27F6
:047FF000FF270994CA
:027FFE00040479
:0400000300007E007B
:00000001FF
