:100000000C9462000C94AC050C9485050C948A0049
:100010000C948A000C948A000C948A000C948A0038
:100020000C948A000C948A000C948A000C94D305DA
:100030000C948A000C948A000C948A000C948A0018
:100040000C943B050C948F060C948A000C948A0047
:100050000C948A000C948A000C948A000C948A00F8
:100060000C948A000C948A000000000023002600F3
:10007000290000000000240027002A0000000000E2
:10008000250028002B0004040404040404040202D4
:100090000202020203030303030301020408102007
:1000A0004080010204081020010204081020000012
:1000B0000008000201000003040700000000000027
:1000C0000000980B11241FBECFEFD8E0DEBFCDBFDC
:1000D00011E0A0E0B1E0EEE0F0E202C005900D9288
:1000E000A431B107D9F722E0A4E1B1E001C01D922B
:1000F000A738B207E1F710E0C2E6D0E004C02197CC
:10010000FE010E94EB0FC136D107C9F70E94BD0660
:100110000C9405100C94000090E0FC01E255FF4F98
:100120002491FC01E656FF4F3491FC01EA57FF4F42
:10013000E491EE23C9F0222339F0233001F1A8F431
:10014000213019F1223029F1F0E0EE0FFF1FE458C1
:10015000FF4FA591B4918FB7F894EC91611126C02F
:1001600030953E233C938FBF08952730A9F0283067
:10017000C9F0243049F7809180008F7D03C08091C1
:1001800080008F7780938000DFCF84B58F7784BD28
:10019000DBCF84B58F7DFBCF8091B0008F778093CC
:1001A000B000D2CF8091B0008F7DF9CF3E2BDACF57
:1001B000CF93DF9390E0FC01E656FF4F24918A57DE
:1001C0009F4FFC0184918823D1F090E0880F991F04
:1001D000FC01EE58FF4FA591B491FC01E458FF4F8C
:1001E000C591D491623071F49FB7F8943C91822FFD
:1001F000809583238C93E8812E2B28839FBFDF91EA
:10020000CF9108958FB7F894EC912E2B2C938FBF3C
:10021000F6CF1F93CF93DF93182FEB0161E00E947D
:10022000D800209739F460E0812FDF91CF911F91A2
:100230000C948C00CF3FD10511F461E0F5CFE12F94
:10024000F0E0E255FF4FE491E33031F140F4E1306A
:10025000B1F0E230E1F0C038D1057CF7E4CFE7300F
:1002600029F1E83059F1E430B1F7809180008062E3
:1002700080938000D0938B00C0938A0004C084B523
:10028000806884BDC7BDDF91CF911F91089584B56B
:10029000806284BDC8BDF7CF809180008068809364
:1002A0008000D0938900C0938800EDCF8091B0008A
:1002B00080688093B000C093B300E5CF8091B00018
:1002C00080628093B000C093B400DDCF2FB7F89464
:1002D0006091B3017091B4018091B5019091B60124
:1002E0002FBF089508954F925F926F927F928F92E1
:1002F0009F92AF92BF92CF92DF92EF92FF920F93B5
:100300001F93CF93DF93CDB7DEB72A970FB6F8943C
:10031000DEBF0FBECDBF8C01DC01D2968C91D2978F
:10032000882389F0D2961C920E946601F80166A784
:1003300077A780AB91AB1486158616861786108A30
:10034000118A128A138AD8015496CD90DD90ED90CF
:10035000FC90579720E030E0A901C701B6010E9448
:10036000EA0D882309F444C0F801868D978DA48D89
:10037000B58D2D913D914D915C91DC016D917D91FB
:100380008D919C910E947D0D9B01AC01C701B6012E
:100390000E94EA0D87FF2CC0F80186A197A1A0A5B5
:1003A000B1A520A131A1F90180839183A283B383F8
:1003B0000E946601D8019E966D937D938D939C93C8
:1003C000D1972A960FB6F894DEBF0FBECDBFDF914E
:1003D000CF911F910F91FF90EF90DF90CF90BF9042
:1003E000AF909F908F907F906F905F904F90089507
:1003F000F801C08CD18CE28CF38C20E030E0A901B4
:10040000C701B6010E94EA0D882311F1D8015C965C
:100410008D919C915D975E960D90BC91A02D2D9134
:100420003D914D915C91FC0160817181828193814C
:100430000E947D0D9B01AC01C701B6010E94EA0D2F
:1004400087FF06C0F80182A193A1A4A1B5A1A9CFFD
:100450000E946601F801C6A4D7A4E0A8F1A84B0148
:100460005C018C189D08AE08BF0882A593A5A4A5C1
:10047000B5A588169906AA06BB0608F4A2CF0E9465
:100480006601D8019E966D937D938D939C93D19731
:100490005E968D919C915F975C960D90BC91A02D7E
:1004A0002D913D914D915C91FC0160817181828122
:1004B00093810E947D0D6B017C01D80150968D9136
:1004C0009D910D90BC91A02D89839A83AB83BC83B1
:1004D000C501B4010E94970E2B013C01A7019601B2
:1004E00069817A818B819C810E947E0D20E030E0C1
:1004F00040E05FE30E944E0FA30192010E944E0F65
:1005000020E030E04AE754E40E94EF0DF801248532
:100510003585468557850E947E0D4B015C01D801CB
:100520001C968D929D92AD92BC921F97F801C08A45
:10053000D18AE28AF38A2081318142815381C701C5
:10054000B6010E944E0F6D837E838F839887D801FA
:1005500014962D913D914D915C911797C501B40171
:100560000E944E0F9B01AC016D817E818F81988529
:100570000E947E0D4B015C0129813A814B815C8197
:10058000C701B6010E947D0DA30192010E94EF0DEB
:1005900020E030E04AE754E40E94EF0DF8012085A6
:1005A0003185428553850E944E0F9B01AC01C501E8
:1005B000B4010E947E0D4B015C01D8019296CC9053
:1005C00092979396DC9093979496EC909497959647
:1005D000FC909B01AC01B601C7010E94490F18169F
:1005E0007CF0F801C6A0D7A0E0A4F1A49401A50175
:1005F000B601C7010E94EA0D87FD02C064017501C2
:10060000D8019096ED91FC91C601D701808391832A
:10061000A283B383D6CEDC01EC91EC3090F5119639
:100620008C91119728E830E0281B310987FD33951C
:10063000220F331F220F331F6217730784F01296A5
:100640008C9128E532E0281B310987FD3395220F74
:10065000331F220F331F621773070CF49B012250C4
:100660003109220F331F4FB7F8948E2F90E0FC0111
:10067000EE0FFF1FE80FF91FE657FE4F328321836D
:100680004FBF08951F93CF93DF93EC01162F8881FE
:100690008C3008F04EC061E0812F0E94D800888124
:1006A000282F30E0F901EE0FFF1FE20FF31FE6578E
:1006B000FE4F1F736081607C612B608319821A82F8
:1006C0002CE0622F0E94CB0F829FB001112430E0FA
:1006D00020E0AB01420F531FFA01EE0FFF1FE40FA2
:1006E000F51FE657FE4F908196FD16C02F5F3F4FD6
:1006F0002C30310571F781110FC01092800082E01B
:10070000809381001092850010928400B19A8091AC
:100710006F00826080936F00E8818E2F90E0FC0173
:10072000EE0FFF1FE80FF91FE657FE4F8081806430
:1007300080838881DF91CF911F910895FC012081F2
:100740008181422F480F5527551F2281240F352FB5
:10075000311D838190E0280F391F349650E040E02E
:100760004817590734F46191260F311D4F5F5F4FD1
:10077000F7CF3093BE012093BD01089520918201EF
:100780003091830180918001909181012817390770
:10079000A9F38091820190918301909381018093CC
:1007A000800108950F931F93CF93DF93EC0188810D
:1007B0008EBD0E94BE0389818EBD0E94BE038A81C8
:1007C0008EBD0E94BE038B818EBD0E94BE038E0132
:1007D000C8018C1B9D0B0F5F1F4F2B81281719061B
:1007E00039F034F0F80183818EBD0E94BE03F0CF52
:1007F000CE010E949E038091BE018EBD0E94BE0369
:100800008091BD018EBDDF91CF911F910F910C940E
:10081000BE032091820130918301809180019091EB
:10082000810128173907A9F3E0918001F091810136
:10083000E45EFE4F8081209180013091810123365A
:10084000310521F4109281011092800120918001E4
:10085000309181012F5F3F4F3093810120938001C0
:100860000895823071F0833091F060E080E00E9462
:100870008C0061E080E10E948C0061E081E10C94D9
:100880008C0061E080E00E948C0060E0F3CF61E0CA
:1008900080E00E948C0061E080E10E948C0060E0BA
:1008A000EDCFCF93DF93EB016931710514F4D0E004
:1008B000C0E0009761F470E060E085E00E9409010B
:1008C00070E060E086E0DF91CF910C940901813007
:1008D000910511F4BE01F1CF029769F770E060E075
:1008E00085E00E940901BE01EDCFE9E4F2E02FEFBF
:1008F00030E0009739F0B9010E94D70F81939193AE
:10090000CB01F7CF0895DC01ED91FD918081ED9150
:10091000FD919081ED91FD916C9163708E2309F0B2
:1009200064609F2309F06860E0EAF4E0E60FF11DDF
:10093000659565956D936D917D918D919D910994CE
:1009400023C01AC012C016C010C01EC009C014C0F7
:1009500013C006C019C009C00DC007C00DC014C027
:1009600062507040804090400BC0615070408040A9
:10097000904006C06E5F01C06F5F7F4F8F4F9F4FEB
:100980009E938E937E936E9308958091860282301B
:1009900078F4F8948BE792E00E94830460918202DD
:1009A00070918302809184029091850278940895D9
:1009B000F894F4CF4F925F926F927F928F929F92B2
:1009C000AF92BF92CF92DF92EF92FF920E94C50446
:1009D0000E94990E4B015C010E9466010E94970ED5
:1009E0006B017C01209118013091190140911A018D
:1009F00050911B01C501B4010E947D0D2B013C01EA
:100A00002091140130911501409116015091170168
:100A1000C701B6010E94EF0D9B01AC01C301B201F9
:100A20000E94EF0D8092180190921901A0921A0174
:100A3000B0921B01C0921401D0921501E0921601F0
:100A4000F0921701FF90EF90DF90CF90BF90AF90A2
:100A50009F908F907F906F905F904F9008958091BE
:100A60008401909185010C9483048091860190917A
:100A700087010C9483041F920F920FB60F921124DA
:100A80002F933F938F939F93AF93BF938091B30125
:100A90009091B401A091B501B091B6013091B2012D
:100AA00023E0230F2D3758F50196A11DB11D20938A
:100AB000B2018093B3019093B401A093B501B093B8
:100AC000B6018091AE019091AF01A091B001B091BB
:100AD000B1010196A11DB11D8093AE019093AF01AC
:100AE000A093B001B093B101BF91AF919F918F914D
:100AF0003F912F910F900FBE0F901F90189526E8F1
:100B0000230F0296A11DB11DD2CF1F920F920FB6D7
:100B10000F9211242F933F934F935F936F937F9383
:100B20008F939F93AF93BF93EF93FF93E091020155
:100B3000F09103010995FF91EF91BF91AF919F91C2
:100B40008F917F916F915F914F913F912F910F9076
:100B50000FBE0F901F9018951F920F920FB60F9215
:100B600011242F933F934F935F936F937F938F93B2
:100B70009F93AF93BF93EF93FF93E0910001F091A8
:100B800001010995FF91EF91BF91AF919F918F91D5
:100B90007F916F915F914F913F912F910F900FBE79
:100BA0000F901F9018951F920F920FB60F9211245D
:100BB0002F933F934F935F936F937F938F939F9365
:100BC000AF93BF93CF93DF93EF93FF93809189010E
:100BD000C0918801D0E087FF24C010928500109258
:100BE0008400809189018F5F8093890180918901C0
:100BF000082E000C990B8C179D0724F48091890115
:100C00008C30C4F1809184009091850004968034EA
:100C10009C4908F47AC080918400909185000496E4
:100C200076C080918901082E000C990B8C179D07C6
:100C3000C4F6E09189018E2FEE0F990BFC01EE0FA7
:100C4000FF1FE80FF91FE657FE4F808186FFC9CFCF
:100C5000E09189018E2FEE0F990BFC01EE0FFF1F23
:100C6000E80FF91FE657FE4F808160E08F730E9406
:100C70008C00B7CF2091840030918500E0918901EC
:100C80008E2FEE0F990BFC01EE0FFF1FE80FF91FDF
:100C9000E657FE4F81819281820F931F90938900C6
:100CA00080938800E09189018E2FEE0F990BFC0153
:100CB000EE0FFF1FE80FF91FE657FE4F808186FFFA
:100CC00011C0E09189018E2FEE0F990BFC01EE0F00
:100CD000FF1FE80FF91FE657FE4F808161E08F7319
:100CE0000E948C00FF91EF91DF91CF91BF91AF9166
:100CF0009F918F917F916F915F914F913F912F9134
:100D00000F900FBE0F901F90189580E49CE9909370
:100D10008900809388008FEF80938901E3CF1F9231
:100D20000F920FB60F9211248F939F93EF93FF931F
:100D3000E0918201F09183018EB5E45EFE4F8083E5
:100D400080918201909183018336910521F4109264
:100D5000830110928201809182019091830101961A
:100D60009093830180938201FF91EF919F918F91E6
:100D70000F900FBE0F901F901895789484B58260E5
:100D800084BD84B5816084BD85B5826085BD85B52F
:100D9000816085BD80916E00816080936E001092AD
:100DA0008100809181008260809381008091810028
:100DB00081608093810080918000816080938000B9
:100DC0008091B10084608093B1008091B000816017
:100DD0008093B00080917A00846080937A00809143
:100DE0007A00826080937A0080917A00816080939B
:100DF0007A0080917A00806880937A001092C10016
:100E000061E080E00E94D80061E080E10E94D800AB
:100E100061E081E10E94D80061E08CE00E94D8008E
:100E200062E170E08AEB91E00E94420363E170E0CE
:100E300087EB91E00E9442038CB580648CBD8CB539
:100E40008F7E8CBD8CB580688CBD82E00E943104A1
:100E5000789433243A9400E010E095E0292E109223
:100E60005302809153028F3F29F00E94090480931E
:100E70005302F7CF0E940904809354020E94090490
:100E8000809355020E9409048093560283E5E82E60
:100E900082E0F82EC70183559240C0915602D0E0FF
:100EA0002FEFE21AF20A8C179D072CF40E94090416
:100EB000F7018383EFCF0E940904CD5ADD4F8C8365
:100EC000C0915602D0E025960E940904CD5ADD4F0C
:100ED000888383E592E00E949E038091560290E011
:100EE000FC01E95AFD4F30812091BE01321330C020
:100EF000885A9D4FFC0190818091BD01981328C0B4
:100F0000FFEFF0936702E0915502E350EB3118F5E3
:100F1000F0E0E357F84F0C94EB0FBC07B207AB07B8
:100F2000AB07AB07AB07B30AAB074B0BAB07AB0782
:100F3000AB07AB07AB07AB07AB07AB07AB07AB0721
:100F4000AB07AB07C70712081509110A4C0A8F082F
:100F500081E00E9431040115110509F480CF0E943F
:100F600000007DCF81E08093680220926902109298
:100F70006A0283E592E0D0C01092680283E0809319
:100F8000690281E080936A0280936B02F2CF83E072
:100F90000E94310481E0809368022092690283E01C
:100FA00080936A020E94C5040E94990E6B017C0125
:100FB000C0924F02D0925002E0925102F09252023F
:100FC00020E030E0A901C701B6010E94490F1816C0
:100FD0000CF0FCC1C701B6010E94610ECB010E945A
:100FE0007504C0904F02D0905002E0905102F090F2
:100FF000520220E030E0A901C701B6010E94490F6A
:1010000018160CF0E7C120E030E040E853E4C701D7
:10101000B6010E94EA0D87FFE8C110924C021092BF
:101020004B02E3C183E00E94310481E080936802B7
:101030002092690283E080936A020E94C5040E94A4
:10104000990E6B017C01C0924F02D0925002E09247
:101050005102F092520220E030E0A9010E94490FB3
:1010600018163CF5C701B6010E94610ECB010E9423
:101070007504C0904F02D0905002E0905102F09061
:10108000520220E030E0A901C701B6010E94490FD9
:1010900018169CF420E030E040E853E4C701B601A4
:1010A0000E94EA0D87FF13C010924C0210924B026F
:1010B0000EC0C701B6019058D7CF20E030E040E81D
:1010C00053ECC701B6010E94490F18166CF38091CA
:1010D000490280936B0280914B0280936C02C7019E
:1010E000B6010E94610E9B01AB0177FF04C044274B
:1010F0005527461B570B81E04217530709F480E040
:1011000080936D026091580270E08091570290E0E8
:101110000E94510487E692E00E94D2031CCF83E034
:101120000E94310481E0809368022092690227E0E6
:1011300020936A02809158026091570270E0839D6B
:10114000600D711D1124072E000C880B990B0E9455
:10115000990E20E030E04AE754E40E94EF0D6B0165
:101160007C01C0921001D0921101E0921201F09224
:10117000130180915A026091590270E0839D600DC5
:10118000711D1124072E000C880B990B0E94990EDB
:1011900020E030E04AE754E40E94EF0D4B015C018F
:1011A0008092450290924602A0924702B092480275
:1011B00080915C0260915B0270E0839D600D711D07
:1011C0001124072E000C880B990B0E94990E20E029
:1011D00030E04AE754E40E94EF0D609341027093BF
:1011E0004202809343029093440220915D0230E0DA
:1011F0003093400220933F02C0920C02D0920D0225
:10120000E0920E02F0920F02809210029092110270
:10121000A0921202B092130260931402709315020E
:101220008093160290931702A4CE83E00E943104AB
:1012300081E0809368022092690283E080936A02D1
:101240000E94C5040E94990E6B017C01C0924F025E
:10125000D0925002E0925102F092520280915802D4
:101260006091570270E0839D600D711D1124072E5F
:10127000000C880B990B0E94990E609308027093E2
:10128000090280930A0290930B02C0913F02D09111
:101290004002A70196010E947D0D6B017C0120E0B8
:1012A00030E0A9010E94490F181624F0F7FAF094D3
:1012B000F7F8F0948090410290904202A09043028F
:1012C000B0904402409010015090110160901201C2
:1012D00070901301BE01DD0F880B990B0E94990ECF
:1012E000A70196010E94EA0D87FF50C040920C02B0
:1012F00050920D0260920E0270920F021092100234
:101300001092110210921202109213028092140293
:1013100090921502A0921602B09217028CE092E011
:101320000E947301C0900402D0900502E090060272
:10133000F090070220E030E0A901C701B6010E9449
:10134000490FA701960118160CF05058C701B601B5
:101350000E94EA0D882399F1C701B6019058609365
:1013600004027093050280930602909307020E9484
:10137000610E81E090E00E945104C0904F02D09035
:101380005002E0905102F09052021ACE8091450234
:1013900090914602A0914702B091480240920C02FF
:1013A00050920D0260920E0270920F028093100212
:1013B00090931102A0931202B0931302A7CFC7011A
:1013C000B6010E94610E82E090E0D5CFC701B60160
:1013D000905802CE20E030E040E853ECC701B6015F
:1013E0000E94490F18160CF418CE80914902809380
:1013F0006B0280914B0280936C02C701B6010E9480
:10140000610E9B01AB0177FF04C044275527461BA3
:10141000570B81E04217530709F480E080936D0277
:1014200079CE83E00E94310481E0809368022092AB
:10143000690282E080936A020E94DA046B017C01F7
:10144000C0920002D0920102E0920202F0920302E6
:1014500020E030E0A901C701B6010E94490F18162B
:101460000CF07DC0C701B6010E94680E60936B024C
:10147000C701B6010E94610E9B01AB0177FF04C05A
:1014800044275527461B570B81E04217530709F4A1
:1014900080E080936C023ECE83E00E94310481E0C4
:1014A0008093680220926902E2E0E0936A020E945F
:1014B000DA04609300027093010280930202909319
:1014C00003026091570270E090E080E00E94970E66
:1014D000609308027093090280930A0290930B02B2
:1014E0008DEC91E00E947301C090C901D090CA01B7
:1014F000E090CB01F090CC0120E030E0A901C701E1
:10150000B6010E94490FA701960118160CF0505819
:10151000C701B6010E94EA0D8823D1F0C701B601C8
:1015200090586093C9017093CA018093CB01909346
:10153000CC010E94610E81E090E00E945104C090B5
:101540000002D0900102E0900202F090030280CFEE
:10155000C701B6010E94610E82E090E0EECFC701A4
:10156000B601905881CF80915702811147C0C09039
:101570000C01D0900D010D2C000CEE08FF0880909E
:10158000C7019090C801092C000CAA08BB088091E3
:1015900059022091580230E0839D200D311D112405
:1015A000032E000C440B550B281939094A095B0915
:1015B00060910E0170910F01072E000C880B990BA2
:1015C0006C197D098E099F090E94BB0F20910A01A9
:1015D00030910B01032E000C440B550B28193909CF
:1015E0004A095B090E94220DCA01B9016C0D7D1DDB
:1015F0008E1D9F1D81EC91E00E940B03809157028C
:10160000813009F0B6CCC0900601D09007010D2CB6
:10161000000CEE08FF088090BF019090C001092CDB
:10162000000CAA08BB08809159022091580230E0B2
:10163000839D200D311D1124032E000C440B550BEE
:10164000281939094A095B0960910801709109015B
:10165000072E000C880B990B6C197D098E099F09C8
:101660000E94BB0F2091040130910501032E000C54
:10167000440B550B281939094A095B090E94220DB0
:10168000CA01B9016C0D7D1D8E1D9F1D84EC91E07A
:101690000E940B036ECC809159026091580270E059
:1016A000839D600D711D112480915B0240915A024F
:1016B00050E0839D400D511D112480915D022091C9
:1016C0005C0230E0839D200D311D1124E0915F020A
:1016D00080915E0290E0E39D800D911D1124E091C8
:1016E0005702E11111C07093C8016093C701509374
:1016F0000B0140930A0130930D0120930C0190934C
:101700000F0180930E0135CCE13009F032CC70939B
:10171000C0016093BF0150930501409304013093D1
:10172000070120930601909309018093080121CCC1
:101730004F925F926F927F928F929F92AF92BF92E1
:10174000CF92DF92EF92FF920F931F93CF93DF938D
:10175000809188018C3008F06DC191E0980F9093D2
:1017600088018093BA0190E0FC01EE0FFF1FE80FA3
:10177000F91FE657FE4F88EB9BE0928381838091AF
:1017800088018C3008F05AC191E0980F909388013D
:101790008093B70190E0FC01EE0FFF1FE80FF91FE7
:1017A000E657FE4F88EB9BE0928381838091BA01DC
:1017B0009091BB01A091BC018093C1019093C201A3
:1017C000A093C3018091B7019091B801A091B90194
:1017D0008093C4019093C501A093C60162E082E0AA
:1017E0000E94D80062E083E00E94D800E8E8F0E0C0
:1017F000E491F0E0EE0FFF1FE859FF4FA591B4917F
:10180000B0937C02A0937B02ECE9F0E0449140931A
:101810007F02E9E8F0E0E491F0E0EE0FFF1FE85905
:10182000FF4FC591D491D0937E02C0937D02EDE924
:10183000F0E0E491E0938002109282021092830221
:1018400010928402109285022BE33FE1C9010197B7
:10185000F1F79C91842F892391E009F490E088812D
:10186000E82309F092602BE732E0909381023093F5
:101870008501209384018FE295E09093010180938C
:101880000001809169008C7F816080936900E89AF3
:1018900081E080938602309387012093860185E35F
:1018A00095E0909303018093020180916900837F0A
:1018B000846080936900E99A82E080938602409177
:1018C00041025091420260914302709144020091A2
:1018D0004502109146022091470230914802C09083
:1018E0001001D0901101E0901201F09013018FE4EB
:1018F00092E09093290280932802E8E0F2E0F093CE
:101900002B02E0932A0284E092E090932D028093D0
:101910002C02412C512C8FE7682E83EC782E4092BC
:101920002E0250922F026092300270923102812C6E
:10193000912C9FE7A92E93E4B92E809232029092C7
:101940003302A0923402B0923502C0920C02D092BF
:101950000D02E0920E02F0920F020093100210931B
:1019600011022093120230931302409314025093F9
:101970001502609316027093170288EE93E0A0E0C0
:10198000B0E08093360290933702A0933802B09370
:101990003902C0E0D2E0D093EA01C093E901F093AC
:1019A000EC01E093EB01E9ECF1E0F093EE01E09360
:1019B000ED014092EF015092F0016092F1017092BE
:1019C000F2018092F3019092F401A092F501B0929D
:1019D000F601C092CD01D092CE01E092CF01F092FB
:1019E000D0010093D1011093D2012093D301309301
:1019F000D4014093D5015093D6016093D7017093E1
:101A0000D8018093F7019093F801A093F901B09366
:101A1000FA01DF91CF911F910F91FF90EF90DF902E
:101A2000CF90BF90AF909F908F907F906F905F907E
:101A30004F9008958FEF8093BA01A1CE8FEF8093DE
:101A4000B701B4CE052E97FB1EF400940E94390D09
:101A500057FD07D00E944C0D07FC03D04EF40C94A8
:101A6000390D50954095309521953F4F4F4F5F4F21
:101A7000089590958095709561957F4F8F4F9F4FFA
:101A800008950E946E0DA59F900DB49F900DA49F88
:101A9000800D911D11240895A1E21A2EAA1BBB1BD3
:101AA000FD010DC0AA1FBB1FEE1FFF1FA217B3072A
:101AB000E407F50720F0A21BB30BE40BF50B661F40
:101AC000771F881F991F1A9469F760957095809504
:101AD00090959B01AC01BD01CF010895A29FB0017B
:101AE000B39FC001A39F700D811D1124911DB29F52
:101AF000700D811D1124911D08955058BB27AA27F0
:101B00000E94950D0C940F0F0E94010F38F00E9457
:101B1000080F20F039F49F3F19F426F40C94FE0EC0
:101B20000EF4E095E7FB0C94F80EE92F0E94200FCD
:101B300058F3BA17620773078407950720F079F402
:101B4000A6F50C94420F0EF4E0950B2EBA2FA02DA3
:101B50000B01B90190010C01CA01A0011124FF275A
:101B6000591B99F0593F50F4503E68F11A16F04055
:101B7000A22F232F342F4427585FF3CF4695379554
:101B80002795A795F0405395C9F77EF41F16BA0B19
:101B9000620B730B840BBAF09150A1F0FF0FBB1FC7
:101BA000661F771F881FC2F70EC0BA0F621F731F10
:101BB000841F48F4879577956795B795F7959E3F6D
:101BC00008F0B0CF9395880F08F09927EE0F9795FE
:101BD000879508950E94D40E08F481E008950E942C
:101BE000030E0C940F0F0E94080F58F00E94010F73
:101BF00040F029F45F3F29F00C94F80E51110C9439
:101C0000430F0C94FE0E0E94200F68F39923B1F34A
:101C1000552391F3951B550BBB27AA276217730712
:101C2000840738F09F5F5F4F220F331F441FAA1FA6
:101C3000A9F335D00E2E3AF0E0E832D09150504062
:101C4000E695001CCAF72BD0FE2F29D0660F771F10
:101C5000881FBB1F261737074807AB07B0E809F0F6
:101C6000BB0B802DBF01FF2793585F4F3AF09E3F7B
:101C7000510578F00C94F80E0C94430F5F3FE4F399
:101C8000983ED4F3869577956795B795F7959F5FBE
:101C9000C9F7880F911D9695879597F90895E1E00A
:101CA000660F771F881FBB1F621773078407BA0769
:101CB00020F0621B730B840BBA0BEE1F88F7E095C4
:101CC00008950E94680E6894B1110C94430F089512
:101CD0000E94280F88F09F5798F0B92F9927B75185
:101CE000B0F0E1F0660F771F881F991F1AF0BA95C0
:101CF000C9F714C0B13091F00E94420FB1E00895CD
:101D00000C94420F672F782F8827B85F39F0B93FBE
:101D1000CCF3869577956795B395D9F73EF4909572
:101D20008095709561957F4F8F4F9F4F0895E894F0
:101D300009C097FB3EF490958095709561957F4F13
:101D40008F4F9F4F9923A9F0F92F96E9BB279395C1
:101D5000F695879577956795B795F111F8CFFAF4D1
:101D6000BB0F11F460FF1BC06F5F7F4F8F4F9F4F02
:101D700016C0882311F096E911C0772321F09EE860
:101D8000872F762F05C0662371F096E8862F70E0C6
:101D900060E02AF09A95660F771F881FDAF7880FA0
:101DA0009695879597F90895990F0008550FAA0BF6
:101DB000E0E8FEEF16161706E807F907C0F012165E
:101DC0001306E407F50798F0621B730B840B950B61
:101DD00039F40A2661F0232B242B252B21F40895B6
:101DE0000A2609F4A140A6958FEF811D811D089553
:101DF00097F99F6780E870E060E008959FEF80ECBE
:101E0000089500240A941616170618060906089560
:101E100000240A9412161306140605060895092EC6
:101E20000394000C11F4882352F0BB0F40F4BF2B35
:101E300011F460FF04C06F5F7F4F8F4F9F4F089575
:101E400057FD9058440F551F59F05F3F71F047956B
:101E5000880F97FB991F61F09F3F79F08795089550
:101E6000121613061406551FF2CF4695F1DF08C06F
:101E7000161617061806991FF1CF8695710561058C
:101E800008940895E894BB2766277727CB0197F934
:101E900008950E94D40E08F48FEF08950E94610FF8
:101EA0000C940F0F0E94010F38F00E94080F20F0D1
:101EB000952311F00C94F80E0C94FE0E11240C9442
:101EC000430F0E94200F70F3959FC1F3950F50E0D0
:101ED000551F629FF001729FBB27F00DB11D639FDC
:101EE000AA27F00DB11DAA1F649F6627B00DA11D82
:101EF000661F829F2227B00DA11D621F739FB00D28
:101F0000A11D621F839FA00D611D221F749F332797
:101F1000A00D611D231F849F600D211D822F762F30
:101F20006A2F11249F5750409AF0F1F088234AF00D
:101F3000EE0FFF1FBB1F661F771F881F9150504079
:101F4000A9F79E3F510580F00C94F80E0C94430FB6
:101F50005F3FE4F3983ED4F3869577956795B79500
:101F6000F795E7959F5FC1F7FE2B880F911D96951A
:101F7000879597F90895DB018F939F930E94410DF8
:101F8000BF91AF91A29F800D911DA39F900DB29F15
:101F9000900D11240895991B79E004C0991F96179C
:101FA00008F0961B881F7A95C9F78095089597FBCE
:101FB000072E16F4009407D077FD09D00E94F10F88
:101FC00007FC05D03EF4909581959F4F089570953C
:101FD00061957F4F0895EE0FFF1F0590F491E02D5E
:101FE0000994AA1BBB1B51E107C0AA1FBB1FA61760
:101FF000B70710F0A61BB70B881F991F5A95A9F7B2
:0E20000080959095BC01CD010895F894FFCF16
:10200E0072017201B400E803D007B400E803D007F0
:04201E000AD7A33DFD
:107E0000112484B714BE81FFF0D085E080938100F7
:107E100082E08093C00088E18093C10086E0809377
:107E2000C20080E18093C4008EE0C9D0259A86E02C
:107E300020E33CEF91E0309385002093840096BBD3
:107E4000B09BFECF1D9AA8958150A9F7CC24DD24C4
:107E500088248394B5E0AB2EA1E19A2EF3E0BF2EE7
:107E6000A2D0813461F49FD0082FAFD0023811F036
:107E7000013811F484E001C083E08DD089C08234E0
:107E800011F484E103C0853419F485E0A6D080C0E4
:107E9000853579F488D0E82EFF2485D0082F10E0AE
:107EA000102F00270E291F29000F111F8ED06801E7
:107EB0006FC0863521F484E090D080E0DECF843638
:107EC00009F040C070D06FD0082F6DD080E0C81688
:107ED00080E7D80618F4F601B7BEE895C0E0D1E017
:107EE00062D089930C17E1F7F0E0CF16F0E7DF06D8
:107EF00018F0F601B7BEE89568D007B600FCFDCFD4
:107F0000A601A0E0B1E02C9130E011968C91119780
:107F100090E0982F8827822B932B1296FA010C0160
:107F200087BEE89511244E5F5F4FF1E0A038BF0790
:107F300051F7F601A7BEE89507B600FCFDCF97BE46
:107F4000E89526C08437B1F42ED02DD0F82E2BD052
:107F50003CD0F601EF2C8F010F5F1F4F84911BD097
:107F6000EA94F801C1F70894C11CD11CFA94CF0C13
:107F7000D11C0EC0853739F428D08EE10CD085E9AC
:107F80000AD08FE07ACF813511F488E018D01DD067
:107F900080E101D065CF982F8091C00085FFFCCF94
:107FA0009093C60008958091C00087FFFCCF809118
:107FB000C00084FD01C0A8958091C6000895E0E648
:107FC000F0E098E1908380830895EDDF803219F02E
:107FD00088E0F5DFFFCF84E1DECF1F93182FE3DFCA
:107FE0001150E9F7F2DF1F91089580E0E8DFEE27F6
:047FF000FF270994CA
:027FFE00040479
:0400000300007E007B
:00000001FF
