:100000000C945C000C946E000C946E000C946E00CA
:100010000C946E000C946E000C946E000C946E00A8
:100020000C946E000C946E000C946E000C946E0098
:100030000C946E000C946E000C946E000C946E0088
:100040000C94DB000C9425010C946E000C946E0053
:100050000C946E000C946E000C946E000C946E0068
:100060000C946E000C946E00000000080002010069
:100070000003040700000000000000000000000072
:10008000250028002B0000000000240027002A0083
:10009000040404040404040402020202020203032E
:1000A0000303030301020408102040800102040836
:1000B000102001020408102011241FBECFEFD8E049
:1000C000DEBFCDBF21E0A0E0B1E001C01D92AF36A0
:1000D000B207E1F70E9448010C94D9010C9400008A
:1000E00090E0FC01EC55FF4F249180579F4FFC019D
:1000F0008491882399F090E0880F991FFC01EA57BA
:10010000FF4FA591B491FC01E458FF4F8591949164
:100110008FB7F894EC91E22BEC938FBF089590E0A9
:10012000FC01E859FF4F2491FC01EC55FF4F34913D
:10013000FC01E057FF4FE491EE23C9F0222339F090
:10014000233001F1A8F4213019F1223029F1F0E037
:10015000EE0FFF1FE458FF4FA591B4918FB7F894AD
:10016000EC91611126C030953E233C938FBF0895DA
:100170002730A9F02830C9F0243049F78091800059
:100180008F7D03C0809180008F7780938000DFCFC8
:1001900084B58F7784BDDBCF84B58F7DFBCF809115
:1001A000B0008F778093B000D2CF8091B0008F7D68
:1001B000F9CF3E2BDACF1F920F920FB60F92112478
:1001C0002F933F938F939F93AF93BF9380916B0136
:1001D00090916C01A0916D01B0916E0130916A0116
:1001E00023E0230F2D3758F50196A11DB11D209353
:1001F0006A0180936B0190936C01A0936D01B093A1
:100200006E018091660190916701A0916801B091A3
:1002100069010196A11DB11D80936601909367014C
:10022000A0936801B0936901BF91AF919F918F91A5
:100230003F912F910F900FBE0F901F90189526E8B9
:10024000230F0296A11DB11DD2CF1F920F920FB6A0
:100250000F9211248F939F93EF93FF93E0910001EE
:10026000F09101018EB5EE5FFE4F80838091000119
:100270009091010101969093010180930001FF91FB
:10028000EF919F918F910F900FBE0F901F90189537
:10029000789484B5826084BD84B5816084BD85B561
:1002A000826085BD85B5816085BD80916E0081606D
:1002B00080936E0010928100809181008260809313
:1002C0008100809181008160809381008091800015
:1002D0008160809380008091B10084608093B10040
:1002E0008091B00081608093B00080917A0084603A
:1002F00080937A0080917A00826080937A00809166
:100300007A00816080937A0080917A00806880937F
:100310007A001092C10080E00E94700080E10E948B
:10032000700081E10E9470008CE00E9470008CB52A
:1003300080648CBD8CB580688CBD61E080E00E94DB
:100340008F0060E080E10E948F0061E081E10E9407
:100350008F0014E1C0E0D0E0809102018F3FA1F452
:1003600080910301873081F480910401909105010F
:10037000282F30E02A5F3E4F931306C0909106016C
:100380008A5F891301C01EBD109201011092000105
:1003900060E080E00E948F0061E080E10E948F00B9
:1003A00061E081E10E948F002097B1F20E9400007D
:0603B000D3CFF894FFCF4B
:00000001FF
