:100000000C945C000C9479000C9479000C947900A9
:100010000C9479000C9479000C9479000C9479007C
:100020000C9479000C9479000C9479000C9479006C
:100030000C9479000C9479000C9479000C9479005C
:100040000C940E010C9458010C9479000C947900D6
:100050000C9479000C9479000C9479000C9479003C
:100060000C9479000C947900000000080002010053
:100070000003040700000000000000000000000072
:10008000250028002B0000000000240027002A0083
:10009000040404040404040402020202020203032E
:1000A0000303030301020408102040800102040836
:1000B000102001020408102011241FBECFEFD8E049
:1000C000DEBFCDBF11E0A0E0B1E0ECE0F6E002C0A1
:1000D00005900D92A430B107D9F721E0A4E0B1E07A
:1000E00001C01D92A438B207E1F70E9486010C946A
:1000F00004030C94000090E0FC01EC55FF4F2491A8
:1001000080579F4FFC018491882399F090E0880FDD
:10011000991FFC01EA57FF4FA591B491FC01E458E7
:10012000FF4F859194918FB7F894EC91E22BEC936B
:100130008FBF089590E0FC01E859FF4F2491FC0126
:10014000EC55FF4F3491FC01E057FF4FE491EE2353
:10015000C9F0222339F0233001F1A8F4213019F13C
:10016000223029F1F0E0EE0FFF1FE458FF4FA59178
:10017000B4918FB7F894EC91611126C030953E236D
:100180003C938FBF08952730A9F02830C9F0243060
:1001900049F7809180008F7D03C0809180008F7728
:1001A00080938000DFCF84B58F7784BDDBCF84B5AB
:1001B0008F7DFBCF8091B0008F778093B000D2CF3E
:1001C0008091B0008F7DF9CF3E2BDACF20916A016C
:1001D00030916B018091680190916901281739076E
:1001E000A9F3E0916801F0916901EC5FFE4F808115
:1001F00020916801309169012336310521F4109274
:1002000069011092680120916801309169012F5FA6
:100210003F4F309369012093680108951F920F9218
:100220000FB60F9211242F933F938F939F93AF9309
:10023000BF938091800190918101A0918201B09142
:10024000830130917F0123E0230F2D3758F501966C
:10025000A11DB11D20937F018093800190938101A6
:10026000A0938201B093830180917B0190917C01E6
:10027000A0917D01B0917E010196A11DB11D8093D9
:100280007B0190937C01A0937D01B0937E01BF918F
:10029000AF919F918F913F912F910F900FBE0F9033
:1002A0001F90189526E8230F0296A11DB11DD2CFED
:1002B0001F920F920FB60F9211248F939F93EF937B
:1002C000FF93E0916A01F0916B018EB5EC5FFE4FF8
:1002D000808380916A0190916B018336910521F4AE
:1002E00010926B0110926A0180916A0190916B01EA
:1002F000019690936B0180936A01FF91EF919F911A
:100300008F910F900FBE0F901F901895CF93DF9392
:1003100000D01F92CDB7DEB7789484B5826084BDDB
:1003200084B5816084BD85B5826085BD85B58160F9
:1003300085BD80916E00816080936E001092810077
:100340008091810082608093810080918100816032
:1003500080938100809180008160809380008091F3
:10036000B10084608093B1008091B000816080937F
:10037000B00080917A00846080937A0080917A0046
:10038000826080937A0080917A00816080937A0005
:1003900080917A00806880937A001092C10080E09A
:1003A0000E947B0080E10E947B0081E10E947B0033
:1003B0008CE00E947B008CB580648CBD8CB580681D
:1003C0008CBD60E080E00E949A0061E080E10E94C4
:1003D0009A0061E081E10E949A00609000017090B3
:1003E000010180900201CE0101965C0169827A824E
:1003F0008B820E94E600809377018F3F09F096C0C0
:100400000E94E600982E80937A010E94E600809375
:1004100076010CE611E0E82EF12CC8018C569140D3
:100420008E159F0534F40E94E600F80181938F0138
:10043000F4CF0E94E600C82E809379010E94E60066
:10044000D82E80937801092D10E001501F4F0E0D1A
:100450001F1DECE6F1E0CF018C5691408E159F05F3
:1004600024F48191080F111DF6CF612F772767FDC6
:100470007A95072E000C880B990B0E94A5021B0190
:100480002C016C2D70E090E080E00E94A5029B01A1
:10049000AC01C201B1010E949E02811147C08D2DA5
:1004A00090E00817190609F041C091103FC061E0C3
:1004B00080E00E949A0061E080E10E949A0060E082
:1004C00081E10E949A00FFEFFEBD0E94E600898153
:1004D0008EBD0E94E600098110E001501F4F8A8105
:1004E0008EBD0E94E6008A81080F111D7501C701AB
:1004F0008A199B092FEFE21AF20A2A812817190696
:1005000049F044F0F7018181080F111D8EBD0E9452
:10051000E600EDCF10937901009378011EBD0E9493
:10052000E600809178018EBD0E94E60080E090E0B8
:10053000892B09F45BCF0E94000058CF0E94E00293
:1005400008F481E00895E89409C097FB3EF4909583
:100550008095709561957F4F8F4F9F4F9923A9F09C
:10056000F92F96E9BB279395F6958795779567952B
:10057000B795F111F8CFFAF4BB0F11F460FF1BC06F
:100580006F5F7F4F8F4F9F4F16C0882311F096E902
:1005900011C0772321F09EE8872F762F05C06623B0
:1005A00071F096E8862F70E060E02AF09A95660F69
:1005B000771F881FDAF7880F9695879597F9089522
:1005C000990F0008550FAA0BE0E8FEEF1616170664
:1005D000E807F907C0F012161306E407F50798F0CC
:1005E000621B730B840B950B39F40A2661F0232BE5
:1005F000242B252B21F408950A2609F4A140A69561
:0C0600008FEF811D811D0895F894FFCF3D
:04060C00020148009F
:107E0000112484B714BE81FFF0D085E080938100F7
:107E100082E08093C00088E18093C10086E0809377
:107E2000C20080E18093C4008EE0C9D0259A86E02C
:107E300020E33CEF91E0309385002093840096BBD3
:107E4000B09BFECF1D9AA8958150A9F7CC24DD24C4
:107E500088248394B5E0AB2EA1E19A2EF3E0BF2EE7
:107E6000A2D0813461F49FD0082FAFD0023811F036
:107E7000013811F484E001C083E08DD089C08234E0
:107E800011F484E103C0853419F485E0A6D080C0E4
:107E9000853579F488D0E82EFF2485D0082F10E0AE
:107EA000102F00270E291F29000F111F8ED06801E7
:107EB0006FC0863521F484E090D080E0DECF843638
:107EC00009F040C070D06FD0082F6DD080E0C81688
:107ED00080E7D80618F4F601B7BEE895C0E0D1E017
:107EE00062D089930C17E1F7F0E0CF16F0E7DF06D8
:107EF00018F0F601B7BEE89568D007B600FCFDCFD4
:107F0000A601A0E0B1E02C9130E011968C91119780
:107F100090E0982F8827822B932B1296FA010C0160
:107F200087BEE89511244E5F5F4FF1E0A038BF0790
:107F300051F7F601A7BEE89507B600FCFDCF97BE46
:107F4000E89526C08437B1F42ED02DD0F82E2BD052
:107F50003CD0F601EF2C8F010F5F1F4F84911BD097
:107F6000EA94F801C1F70894C11CD11CFA94CF0C13
:107F7000D11C0EC0853739F428D08EE10CD085E9AC
:107F80000AD08FE07ACF813511F488E018D01DD067
:107F900080E101D065CF982F8091C00085FFFCCF94
:107FA0009093C60008958091C00087FFFCCF809118
:107FB000C00084FD01C0A8958091C6000895E0E648
:107FC000F0E098E1908380830895EDDF803219F02E
:107FD00088E0F5DFFFCF84E1DECF1F93182FE3DFCA
:107FE0001150E9F7F2DF1F91089580E0E8DFEE27F6
:047FF000FF270994CA
:027FFE00040479
:0400000300007E007B
:00000001FF
